:10087C003F065B4F666D7D077F6F010204081020F9
:02088C004080AA
:1006A700015100012300015000014F00C100015317
:1006B70000015204083CFFFFFFFFFFFFFFFF084553
:1006C700FFFFFFFFFFFFBFFF014D010A32000001DF
:1006D70090032004B0032002240000022600000239
:1006E700280000022A0000022C0000022E0000024F
:0306F700300000D0
:1006FB0053A01F7580FF43A0807580FF53A01F532D
:10070B00A01FE4F58043A0A0F58053A01F53A01FAA
:10071B00F58043A0C0F58053A01F53A01F7580FF29
:0A072B0043A0E07580FF53A01F22D9
:10086700438E805389F0758ACD758CD4C28DD28C16
:05087700D2A9D2AF225E
:10050300E4FFE5B0540FFEE55114602B14604F1463
:1005130070030205B7240360030205C5E4F523EE67
:10052300FD3395E0FCED640F4C70030205C5E4F563
:1005330021F52275510122EEFD3395E0FCED640FA8
:100543004C60170522E52270020521C39403E521BF
:1005530064809480406C75510222E4F55122EEFDD3
:100563003395E0FCED640F4C7007AF23F523F55191
:1005730022ED640E4C7003752301ED640D4C700382
:10058300752302ED640B4C7003752303ED64074C74
:1005930070037523040522E52270020521C39464C8
:1005A300E52164809480401AE5234480FFE4F52329
:1005B30075510322EEFD3395E0FCED640F4C7002A0
:0205C300F551F0
:0105C5002213
:10028E007F0112079CEF75F064A485F034F5357F7D
:10029E000212079CEF75F064A485F036F5377F03E4
:1002AE0012079CEF75F064A485F038F5397F0412BF
:1002BE00079CEF75F064A485F03AF53B12086712BF
:1002CE0006FBAF527E00EF64017010300102800B0E
:1002DE00753CFF753DFF753EFF800F753CBFE54DCC
:1002EE0090087C93F4F53D753EBFEF64024E70149A
:1002FE00300102800F7540FF7541FF7542FF754357
:10030E00FF02039EE54D25E02432F8E6FA08E6FBEF
:10031E007C037DE8FFAE02120652747C2FF58274C8
:10032E00083EF583E493F4F5407C007D64AF03AEA4
:10033E00021206527C007D0A120652747C2DF58242
:10034E0074083CF583E493F4F541E54D25E0243241
:10035E00F8E6FA08E6FB7C007D0AFFAE02120652B2
:10036E007C007D0A120652747C2DF58274083CF5D1
:10037E0083E493F4F5427C007D0AAF03AE021206CD
:10038E0052747C2DF58274083CF583E493F4F543A6
:10039E003000197F0312076A8F4EC200E54E75F0CA
:1003AE00558404F55390087C93F4F54CE54424FEF3
:1003BE00602614700302045614700302049724037B
:1003CE0060030204DAE5506006E4F5500204D775C6
:1003DE005001E4F54F0204D70552E55264037065EF
:1003EE00F552AE34AF35FC7D64120652AD077F0177
:1003FE001207EA7F0A7E00120851AE36AF377C0034
:10040E007D64120652AD077F021207EA7F0A7E0054
:10041E00120851AE38AF397C007D64120652AD071A
:10042E007F031207EA7F0A7E00120851AE3AAF3BF5
:10043E007C007D64120652AD077F041207EA7F0A24
:10044E007E001208510204D7AF527E00EF64017095
:10045E000DC3E54D9404748094805002054DEF64F5
:10046E00024E7023E54D25E02432F8E6FE08E6C381
:10047E0094B0EE94045010E54D25E02432F8087443
:10048E006426F618E436F68040AF527E00EF640123
:10049E00700DD3E54D9401748094804002154DEF9C
:1004AE0064024E7024E54D25E02432F8E6FE08E69F
:1004BE00D39490EE94014011E54D25E02432F808D6
:1004CE00749C26F61874FF36F6E4F544AF51EF33FC
:1004DE0095E0FEEF64034E7007E55270037552040B
:1004EE00EF4E60030202D0E552640460030202D0B4
:0504FE00F5520202D0DE
:03000B0002000EE2
:10000E00C0E0C0F0C083C082C0D075D000C000C0B8
:07001E0004C005C006C00785
:100025000525E525700205240527E5277002052627
:10003500052BE52B7002052A052DE52D7002052CF3
:10004500052FE52F7002052E0531E53170020530CB
:10005500E52764084526700B1205038F44752600B5
:10006500752700E52D6464452C7006F52CF52DD219
:1000750000E531B4200DE530B40308753000753165
:1000850000B201E525640345246003020122F5243D
:10009500F525E5A0541F44C0F5A075800053A01FA9
:1000A500AF527E00EF700EE5A0541F44E0F5A07539
:1000B50080FF53A01FEF64014E6006E55264027095
:1000C50013E5A0541F44E0F5A0743C2529F8E6F596
:1000D5008053A01FE55264047013E5A0541F44E04B
:1000E500F5A074452529F8E6F58053A01FE5A05431
:1000F5001F44C0F5A074862529F58274083528F5B6
:1001050083E493F58053A01F7580FF0529E52970C9
:10011500020528640845287004F528F529E5537576
:10012500F002A4FFC3E52F9FE5F06480F8E52E6497
:1001350080984003020256E55064017039E5A054E9
:100145001F4480F5A0AF4FA8077401088002C33390
:10015500D8FCF4F58053A01FD3E52B9535E52A95FA
:10016500344013054F752A00752B00E54F64087060
:1001750005F54F755002E55064027039E5A0541F2E
:100185004480F5A0AF4FA8077480088002C313D838
:10019500FCF4F58053A01FD3E52B9537E52A95365A
:1001A5004013054F752A00752B00E54F640870054F
:1001B500F54F755003E55064037046E5A0541F44A0
:1001C50080F5A0AF4FA8077401088002C333D8FC9F
:1001D500FFAE4FA8067480088002C313D8FC4FF405
:1001E500F58053A01FD3E52B9539E52A95384011A5
:1001F500054F752A00752B00E54F64047003755093
:1002050004E5506404706DE5A0541F4480F5A0AF6B
:100215004FA8077401088002C333D8FCFFAE4FA86E
:10022500067480088002C313D8FC4FF4F58053A0F0
:100235001FD3E52B953BE52A953A4038054F752A9E
:1002450000752B00E54F6408702AF54F7550018045
:1002550023C3E52F940AE52E648094805010E5A011
:10026500541F4480F5A07580FF53A01F8006752E8E
:0402750000752F00E1
:10027900D007D006D005D004D000D0D0D082D0830A
:05028900D0F0D0E032CE
:0408AB00D2A07F0553
:0808AF0000AE071FEE70F922F4
:0F088E00D2A11208ABC2A17F051208AFC2A022EF
:0C08B700C2A11208ABD2A17F050208AF5D
:10083A00C2A0A20292A17F051208AF1208ABC2A001
:07084A00D2A17F050208AFF7
:0A080700C2AF12088E7FA012073561
:100811001208ABA2A19203C2A07F051208AFA203E6
:0108210022B4
:02073500AD070E
:10073700E4FCECC39408748094805024C2A07F0525
:100747001208AFED30E704D2A18002C2A17F0512E3
:1007570008AFD2A0ED25E0FD7F051208AF0C80D2CF
:02076700C2A02E
:01076900226D
:1007C400E4FCECC394087480948050171208ABEDD9
:1007D40025E0FD30A103430501C2A07F051208AF47
:0507E4000C80DFAF05F1
:0107E90022ED
:02079C00AB07A9
:10079E00120807AF0312073512081112088E7FA137
:1007AE001207351208111207C4AD071208111208EC
:0507BE00B7D2AFAF054A
:0107C3002213
:1007EA00AB05AA07120807AF02120735120811AFA4
:0D07FA00031207351208111208B7D2AF2202
:02076A00AB07DB
:10076C00C2AF12088E7F90120735120811AF031218
:10077C00073512081112088E7F91120735120811D5
:0F078C001207C4AD071208111208B7D2AFAF059C
:01079B00223B
:10082200AB0712088E7F90120735120811AF031220
:0808320007351208110208B796
:0E089D00000000EF1FAC0670011E4C70F3222D
:100851000000007D0B7CBEDCFEDDFCEF1FAC0670F2
:05086100011E4C70EBCC
:01086600226F
:030000000205C630
:0C05C600787FE4F6D8FD75815302060D25
:10065200BC000BBE0029EF8DF084FFADF022E4CC8C
:10066200F875F008EF2FFFEE33FEEC33FCEE9DEC55
:10067200984005FCEE9DFE0FD5F0E9E4CEFD22ED9B
:10068200F8F5F0EE8420D21CFEADF075F008EF2FE5
:10069200FFED33FD4007985006D5F0F222C398FDD6
:0506A2000FD5F0EA2273
:1005D20002028EE493A3F8E493A34003F68001F2AF
:1005E20008DFF48029E493A3F85407240CC8C3332A
:1005F200C4540F4420C8834004F456800146F6DFF9
:10060200E4800B01020408102040809006A7E47EDB
:10061200019360BCA3FF543F30E509541FFEE493ED
:10062200A360010ECF54C025E060A840B8E493A3B4
:10063200FAE493A3F8E493A3C8C582C8CAC583CADF
:10064200F0A3C8C582C8CAC583CADFE9DEE780BE97
:0106FA0000FF
:00000001FF
