:100C22003F065B4F666D7D077F6F0102040810204F
:020C3200408000
:10094100C101085F3900000000000000C100084F2C
:100951003E0000000000000002410000082B710071
:10096100000000000000013E010167000144000297
:100971004A0000017100014900024D0000024700D8
:100981000001680008727639000000000000086963
:10099100763E00000000000008357671000000007E
:1009A100000008577300000000000000013300013F
:1009B1003D01022100000223000002250000022760
:0609C10000000229000005
:100A1000E5A0541F4480F5A07580FF53A01FE5A0FA
:100A2000541F44A0F5A0C284C28653A01FE5A05461
:100A30001F44C0F5A0E4F58053A01FE5A0541F4457
:0A0A4000E0F5A07580FF53A01F220F
:100C3400438E80438904758AFF758CFFD28CD2A9B8
:010C4400228D
:100C0D00438E4053890F758BCD758DD4C28FD28E87
:050C1D00D2ABD2AF22B2
:080C6C007F367EC7DEFEDFFCCF
:010C7400225D
:1009C80075C00175B00FE5C05404C454F0FFE5C00C
:1009D800541033333354F84FFFE5B0543F4FFF758D
:1009E800C01F75B0F0E5C0541033333354F84FFFCF
:1009F800E5C05404C454F04FFFE5B0543F4FF4FF32
:070A080065345FF5438F34F4
:010A0F0022C4
:1007F400AF437E00EF64817011F53EF5680533E583
:100804003364027005F533753E01EF64824E70293E
:10081400AF33FEEF700DF53E0568E56864047003C0
:10082400756801EF64014E7010053DD3E53D9432C7
:10083400748094804003753D01E54364847060AD29
:10084400497F01120BA8120C6CAD717F02120BA828
:10085400120C6CE549F54DE571F54EAD4C7F031274
:100864000BA8120C6CAC4CE41201CEE4FBFA797FB9
:100874007843120127E4FBFA79FA784312001E1236
:1008840002028E478F48AD447F04120BA8120C6CF1
:10089400AD677F05120BA8E544F54AE567F54BE51E
:1008A400436488700B053EE53E64047003753E01A5
:0108B4002221
:1002F800120A10120C34120C0D7F01120AE98F49F0
:10030800120C6C7F02120AE98F71120C6CE549F528
:100318004DE571F54E7F04120AE98F44120C6C7F8B
:1003280005120AE98F67120C6CE544F54AE567F592
:100338004B7F03120AE9AC07E41201CEE4FBFA7919
:100348007F7843120127E4FBFA79FA784312001EFA
:100358001202028E478F482000030204457F0312D1
:100368000AB78F4CAC4CE41201CEE4FBFA797F78E3
:1003780043120127E4FBFA79FA784312001E1202AD
:10038800028E3F8F407C007D6412029574222FF507
:1003980082740C3EF583E4934480F555AE3FAF403C
:1003A8007C007D0A1202957C007D0A120295742257
:1003B8002DF582740C3CF583E493F556120A4A1223
:1003C80002028E458F467C037DE812029574222F27
:1003D800F582740C3EF583E493F563AE45AF467C35
:1003E800007D641202957C007D0A12029574222D0C
:1003F800F582740C3CF583E4934480F564AE45AF14
:10040800467C007D0A1202957C007D0A12029574D2
:10041800222DF582740C3CF583E493F565AE45AF67
:10042800467C007D0A12029574222DF582740C3CDC
:10043800F583E493F566854671E545F5493001088D
:10044800C2011209C81207F4E56864017074AE4D60
:10045800AF4E7C037DE812029574222FF582740C4E
:100468003EF583E493F576AE4DAF4E7C007D641285
:1004780002957C007D0A12029574222DF582740C77
:100488003CF583E4934480F577AE4DAF4E7C007D18
:100498000A1202957C007D0A12029574222DF582BB
:1004A800740C3CF583E493F578AE4DAF4E7C007D3B
:1004B8000A12029574222DF582740C3CF583E4939C
:1004C800F579E568FB7A006402703AAE47AF48FCFC
:1004D8007D6412029574222FF582740C3EF583E434
:1004E800934480F56FAE47AF487C007D0A120295B1
:1004F8007C007D0A12029574222DF582740C3CF55D
:1005080083E493F570EB64034A60030205A8AE4ADE
:10051800AF4B7C277D1012029574222FF582740C44
:100528003EF583E493F538AE4AAF4B7C037DE81281
:1005380002957C007D0A12029574222DF582740CB6
:100548003CF583E493F539AE4AAF4B7C007D6412E9
:1005580002957C007D0A12029574222DF582740C96
:100568003CF583E493F53AAE4AAF4B7C007D0A1222
:1005780002957C007D0A12029574222DF582740C76
:100588003CF583E493F53BAE4AAF4B7C007D0A1201
:10059800029574222DF582740C3CF583E493F53CA6
:1005A800E5336401600302035FE53D75F00A84905A
:1005B8000C22934480F55DE53D75F00A84E5F093DF
:0505C800F55E02035F77
:03000B0002000EE2
:0D000E00C0E00542E54270020541D0E0323D
:03001B000205CD0E
:1005CD00C0E0C0F0C083C082C0D075D000C000C0F4
:0705DD0004C005C006C007C1
:1005E4000522E522700205210524E5247002052375
:1005F4000528E52870020527052AE52A7002052941
:10060400E528649645277006F527F528D200E524E9
:10061400640745237006D201F523F524E52264021C
:1006240045216003020726F521F522E5A0541F4465
:10063400C0F5A075800053A01FAF3E7E00EF64019B
:100644007014E5A0541F44E0F5A0745F2526F8E675
:10065400F4F58053A01FEF64024E7014E5A0541FFC
:1006640044E0F5A0744F2526F8E6F4F58053A01F66
:10067400E53E64037014E5A0541F44E0F5A0742B18
:100684002526F8E6F4F58053A01FAF687E00EF64DA
:10069400017014E5A0541F44E0F5A074722526F8F7
:1006A400E6F4F58053A01FEF64024E7014E5A054E5
:1006B4001F44E0F5A074692526F8E6F4F58053A0FC
:1006C4001FE56864037014E5A0541F44E0F5A074AA
:1006D400352526F8E6F4F58053A01FE53364017050
:1006E40014E5A0541F44E0F5A074572526F8E6F459
:1006F400F58053A01FE5A0541F44C0F5A0742C2519
:1007040026F582740C3525F583E493F58053A01FF8
:100714000526E52670020525640845257004F5259F
:10072400F526E52A64E87004E529640360030207FA
:10073400DFF529F52AC2A9C28C854267E541F54453
:10074400FEAF427C277D1012029574222FF582742D
:100754000C3EF583E493F52EAE41AF427C037DE875
:100764001202957C007D0A12029574222DF5827482
:100774000C3CF583E493F52FAE41AF427C007D64DD
:100784001202957C007D0A12029574222DF5827462
:100794000C3CF583E493F530AE41AF427C007D0A16
:1007A4001202957C007D0A12029574222DF5827442
:1007B4000C3CF583E493F531AE41AF427C007D0AF5
:1007C40012029574222DF582740C3CF583E493F5A2
:0B07D40032754100754200D2A9D28CA2
:1007DF00D007D006D005D004D000D0D0D082D0839F
:0507EF00D0F0D0E03263
:040BF7007F057E00F8
:100BFB007C007D0C120283EF1FAC0670011E4C7043
:020C0B00F622CF
:020B1100AB0730
:100B1300E4FAEAC39408748094805012C294EB13ED
:100B23009294120BF7D294EBC313FB0A80E47F0574
:050B33007E00020BFB37
:100B8500E4FAEAC39408748094805014C294EBC3C9
:100B950013FBD294309403430380120BF70A80E2CF
:020BA500AF039C
:010BA700222B
:100B3800C203D2947F0C7E00120BFBC2947F507EBE
:100B480000120BFBD2947F0A7E00120BFBA2949238
:060B580003120BF7A203DB
:010B5E002274
:100A4A00120B387FCC120B117F44120B11120B3888
:100A5A007FCC120B117FBE120B11120B85A9071244
:100A6A000B85EFFEE9FFE4AD07AC061201C9E4FB12
:080A7A00FA79C8784002001E61
:040C5400D2A07F05A6
:080C580000AE071FEE70F92247
:0F0C4500D2A1120C54C2A17F05120C58C2A022DA
:0C0C6000C2A1120C54D2A17F05020C5856
:100BE000C2A0A20292A17F05120C58120C54C2A0FE
:070BF000D2A17F05020C58A1
:0A0BC500C2AF120C457FA0120A8295
:100BCF00120C54A2A19203C2A07F05120C58A203CB
:010BDF0022F3
:020A8200AD07BE
:100A8400E4FCECC39408748094805024C2A07F05D5
:100A9400120C58ED30E704D2A18002C2A17F0512E6
:100AA4000C58D2A0ED25E0FD7F05120C580C80D225
:020AB400C2A0DE
:010AB600221D
:100B5F00E4FCECC39408748094805017120C54ED8D
:100B6F0025E0FD30A103430501C2A07F05120C58FB
:050B7F000C80DFAF0552
:010B8400224E
:020AB700AB078B
:100AB900C2AF120C457F90120A82120BCFAF0312FC
:100AC9000A82120BCF120C457F91120A82120BCFA8
:0F0AD900120B5FAD07120BCF120C60D2AFAF053F
:010AE80022EB
:100BA800AB05AA07120BC5AF02120A82120BCFAF10
:0D0BB80003120A82120BCF120C60D2AF2282
:020AE900AB0759
:100AEB00120BC5AF03120A82120BCF120C457FA15A
:100AFB00120A82120BCF120B5FAD07120BCF120C27
:050B0B0060D2AFAF0550
:010B100022C2
:10001E00EC4D6011E8497017ED33EC3304600DE4DC
:10002E00FCFFFEFD22E933E8330470F802026E1283
:10003E00023958046009E4CC248150062850090284
:10004E000278284003020275C0E0EB4A7044B98082
:10005E0006D0E0FB020264EF4E701CBD8008EBFF81
:10006E00EAFEE9FD80EBE98DF0A4FEE5F002010762
:10007E00E9CDF9EAFEEBFFEF89F0A4FCE5F0CE89BD
:10008E00F0A42EFFE435F0CD89F0A42DFEE435F07A
:10009E008067EF4E7005BD80D780C3EF8BF0A4ACA8
:1000AE00F0EE8BF0A42CFCE435F0F8EF8AF0A42CE3
:1000BE00E5F038FCE433CB8DF0A42CFCE5F03BF8F6
:1000CE00EE8AF0A42CFCE5F038F8E433CF89F0A4E6
:1000DE002CFCE5F038CF3400CE89F0A42FFFE5F0EC
:1000EE003EFEE433C98DF0A42EFEE5F039CD8AF044
:1000FE00A42FFFE5F03EFEE43DFD33D0E0FB5007BC
:10010E000BBB000F020278EC2CFCEF33FFEE33FE3C
:06011E00ED33FD0202506A
:10012400020278EC5D046005E85904700302026E73
:10013400120239580460F6EC4860F2EC7004FDFEDB
:10014400FF22C860DB2481C85009C39860025006AE
:100154000202759850CAF582E9294B4A7005AB82B0
:1001640002026475F0007C1A7880C3EF9BEE9AED6E
:1001740099400DC3EF9BFFEE9AFEED99FDE842F026
:10018400DC23ACF0D0E0FFD0E0FED0E0FDAB822079
:10019400E7101BEB60BAEC2CFCEF33FFEE33FEED03
:1001A40033FD020250E803F830E705C0F075F000B3
:1001B400EF2FFFEE33FEED33FD40B830E7C280AAE7
:1001C40075F020800E75F010800575F0087D007EB6
:1001D400007F003392D530D5031202EAEC3340108D
:1001E400EF33FFEE33FEED33FDEC33FCD5F0ED22BF
:0E01F400E5F0247EA2D513CC92E7CDCEFF22FB
:10020200EDD2E7CD33EC3392D524814006E4FFFEF4
:10021200FDFC22FCE4CFCECDCC24E0501174FF8053
:10022200EDC3CC13CCCD13CDCE13CECF13CF0470F0
:07023200F030D5DE0202EA04
:10023900E9D2E7C933E833F892D5EDD2E7CD33EC0B
:0702490033FC5002B2D52284
:10025000EC30E7100FBF000C0EBE00080DBD00040F
:100260000BEB6014A2D5EB13FCED92E7FD2274FFBB
:10027000FCFDFEFF22E480F8A2D574FF13FC7D8014
:03028000E480EF28
:030000000208B53E
:0C08B500787FE4F6D8FD7581790208FC1C
:10028300EF8DF0A4A8F0CF8CF0A428CE8DF0A42E8F
:02029300FE2249
:10029500BC000BBE0029EF8DF084FFADF022E4CC4D
:1002A500F875F008EF2FFFEE33FEEC33FCEE9DEC16
:1002B500984005FCEE9DFE0FD5F0E9E4CEFD22ED5C
:1002C500F8F5F0EE8420D21CFEADF075F008EF2FA6
:1002D500FFED33FD4007985006D5F0F222C398FD97
:0502E5000FD5F0EA2234
:0E02EA00C3E49FFFE49EFEE49DFDE49CFC2225
:1008C1000202F8E493A3F8E493A34003F68001F253
:1008D10008DFF48029E493A3F85407240CC8C33338
:1008E100C4540F4420C8834004F456800146F6DF07
:1008F100E4800B0102040810204080900941E47E4D
:10090100019360BCA3FF543F30E509541FFEE493FB
:10091100A360010ECF54C025E060A840B8E493A3C2
:10092100FAE493A3F8E493A3C8C582C8CAC583CAED
:10093100F0A3C8C582C8CAC583CADFE9DEE780BEA5
:0109C700002F
:00000001FF
