:1009A5003F065B4F666D7D077F6F010204081020CF
:0209B500408080
:10082D000158FF012100C101012C00013100012DF2
:10083D00000222000002240000022600000228000F
:05084D0000022A00007A
:1007440053A01F7580FF43A0807580FF53A01F53E3
:10075400A01FE4F58043A0A0F58053A01F53A01F61
:10076400F58043A0C0F58053A01F53A01F7580FFE0
:0A07740043A0E07580FF53A01F2290
:10096900438E805389F0758ACD758CD4C28DD28C13
:05097900D2A9D2AF225B
:1005DD00E4FEE52114601914606D2402707975B084
:1005ED000FC2C2C2C4ADB0ED640F606B75210122A4
:1005FD00A2B0B3A0B1A0B2A0B3501420B0027E043B
:10060D0020B1027E0320B2027E0220B3027E01756C
:10061D00B0F0D2C2D2C4A2B4B3A0B5A0C2A0C4508F
:10062D002220B4027F0420B5027F0320C2027F0284
:10063D0020C4027F01EF25E025E02E24FBF558753F
:10064D00210222E4F5212275B00FC2C2C2C4AEB0A0
:07065D00EE640F7002F521AD
:010664002273
:070003000000007F1EDFFE7C
:01000A0022D3
:100992007E01D290120003C290120003AF061EEF36
:0209A20070F0F3
:0109A4002230
:100258001207447B377D3B7F171206657F01120723
:10026800B68F2CE52C75F00A849009A593F548E51E
:100278002C75F00A84E5F093F549052CAD2C7F0127
:100288001208C21209697FFF120939C2AF7F8112B1
:1002980006CB8F2E7F831206CB8F327F851206CB3B
:1002A8008F33D2AFE533C4540F9009A593F53FE5DA
:1002B80033540F93F540754140E532C4540F93F51C
:1002C80042E532540F93F543754440E52EC4540F6C
:1002D80093F545E52E540F93F54630015EC2017F34
:1002E800011208798F3E7F031208798F47E53E7522
:1002F800F064849009A593F536E53E75F00A847597
:10030800F00A84E5F093F537E53E75F00A84E5F0E8
:1003180093F538E54775F0648493F53BE54775F048
:100328000A8475F00A84E5F093F53CE54775F00A10
:1003380084E5F093F53DAF4712093912077E1201A3
:10034800528F31E53175F00A849009A593F54EE591
:100358003175F00A84E5F093F54FE55814601914E7
:10036800601B14601D14601F24047021052DE52DE9
:1003780064047016F52D8012752D01800D752D02FF
:100388008008752D038003E4F52D7558FF200003C0
:10039800020293C200120992D28E309103308FFA72
:1003A800C28E308F04C28F802DAF8D752F008F3095
:1003B800E530753000F52FAF8BEF4230E4AC2FAD50
:1003C800301201197BBC7A747993783C12000E12B2
:1003D80001528E348F35E4F58DF58BAE34AF35FC94
:1003E8007D641201F574A52FF58274093EF583E446
:1003F800934480F555AE34AF357C007D641201F529
:100408007E007F0ACFCDCFCECCCE1201F574A52FBA
:10041800F58274093EF583E493F556AE34AF357C26
:10042800007D0A1201F574A52DF58274093CF58347
:07043800E493F55702029363
:03000B0002043FAD
:10043F00C0E0C083C082C0D075D000C000C005C06E
:03044F0006C007DD
:100452000523E523700205220525E5257002052402
:100462000529E52970020528052BE52B7002052ACE
:10047200E5256408452470091205DD7524007525FB
:1004820000E529646445287006F528F529D201E5BE
:1004920023640245226003020532F522F523E5A01A
:1004A200541F44C0F5A075800053A01FAF2D7E00DD
:1004B200EF700CE5A0541F44E0F5A0743F8037EFC5
:1004C20064014E700CE5A0541F44E0F5A074368020
:1004D20025AF2D7E00EF6402700CE5A0541F44E0AE
:1004E200F5A074488010EF64034E7014E5A0541F09
:1004F20044E0F5A074502527F8E6F4F58053A01FD8
:10050200E5A0541F44C0F5A074AF2527F5827409F5
:100512003526F583E493F58053A01F7580FF0527E8
:10052200E52770020526640845267004F526F5279E
:0E053200E52B6432452A7006F52AF52BD2001F
:10054000D007D006D005D000D0D0D082D083D0E064
:010550003278
:10091D00E4FEEEC3940874809480500FC297EF13D9
:0B092D0092A3EFC313FFD2970E80E7E8
:01093800229C
:10097E00C29300C29700D2930012091DAF0512094F
:04098E001DC29322D1
:1006CB00E4FDC29300C29700D2930012091DE4FF10
:1006DB00EFC39408748094805011C297EDC313FD3F
:1006EB0030A303430580D2970F80E5C29300C297D6
:0C06FB0000D29700C2A300D2A300AF05FC
:0107070022CF
:10066500AC07AA05E4FD7F8E12097EEB75F00A1230
:1006750001D3C454F0FFEB75F00A1201D3AEF0EFCD
:100685002EFD7F8012097EEA75F00A1201D3C4544B
:10069500F0FFEA75F00A1201D3AEF0EF2EFD7F826E
:1006A50012097EEC75F00A1201D3C454F0FFEC7503
:1006B500F00A1201D3AEF0EF2EFD7F8412097E7D84
:0606C500807F8E02097E19
:0408E2007F057E0010
:1008E600EF1FAA0670011E4A600FE4FDEDC3940CCB
:0908F6007480948050EA0D80F337
:0108FF0022D6
:0207DF00A90768
:1007E100E4FBEBC39408748094805012C294E91323
:1007F10092941208E2D294E9C313F90B80E47F05C5
:050801007E000208E684
:10089F00E4FBEBC39408748094805014C294ECC3AF
:1008AF0013FCD2943094034304801208E20B80E2CD
:0208BF00AF0484
:0108C1002214
:10080600C203D2947F0C7E001208E6C2947F507E0B
:10081600001208E6D2947F0A7E001208E6A294929D
:06082600031208E2A20328
:01082C0022A9
:10077E001208067FCC1207DF7F441207DF1208062D
:10078E007FCC1207DF7FBE1207DF12089FA9071268
:10079E00089FEFFEE9FFE4AD07AC06120119E4FB7A
:0807AE00FA7980783D02000E8B
:0409C600D2A07F0537
:0809CA0000AE071FEE70F922D8
:0F09B700D2A11209C6C2A17F051209CAC2A0228D
:0C09D200C2A11209C6D2A17F050209CA09
:10095200C2A0A20292A17F051209CA1209C6C2A0B0
:07096200D2A17F050209CAC2
:0C090000AB07C2AF1209B77F9012070FBF
:10090C001209C6A2A19203C2A07F051209CAA203B2
:01091C0022B8
:07070800C2AF1209B77FA088
:02070F00AD0734
:10071100E4FCECC39408748094805024C2A07F054B
:100721001209CAED30E704D2A18002C2A17F0512ED
:1007310009CAD2A0ED25E0FD7F051209CA0C80D2BD
:02074100C2A054
:010743002293
:10085300E4FCECC394087480948050171209C6ED2D
:1008630025E0FD30A103430501C2A07F051209CA9B
:050873000C80DFAF0561
:01087800225D
:10087900120900AF0312070F12090C1209B77F9171
:1008890012070F12090C120853AD0712090C1209AD
:05089900D2D2AFAF0553
:01089E002237
:100939001209007F4012070F12090CAF0312070FAB
:0909490012090C1209D2D2AF22EE
:1008C200AB05AA0712070812090CAF0212070F1292
:1008D200090CAF0312070F12090C1209D2D2AF2270
:0207B600AB078F
:1007B80012070812090CAF0312070F12090C1209CD
:1007C800B77FA112070F12090C120853AD071209BF
:0607D8000C1209D2AF056E
:0107DE0022F8
:10000E00EC4D6011E8497017ED33EC3304600DE4EC
:10001E00FCFFFEFD22E933E8330470F80201BE1244
:10002E00018958046009E4CC248150062850090245
:10003E0001C82840030201C5C0E0EB4A7044B980F4
:10004E0006D0E0FB0201B4EF4E701CBD8008EBFF42
:10005E00EAFEE9FD80EBE98DF0A4FEE5F00200F783
:10006E00E9CDF9EAFEEBFFEF89F0A4FCE5F0CE89CD
:10007E00F0A42EFFE435F0CD89F0A42DFEE435F08A
:10008E008067EF4E7005BD80D780C3EF8BF0A4ACB8
:10009E00F0EE8BF0A42CFCE435F0F8EF8AF0A42CF3
:1000AE00E5F038FCE433CB8DF0A42CFCE5F03BF806
:1000BE00EE8AF0A42CFCE5F038F8E433CF89F0A4F6
:1000CE002CFCE5F038CF3400CE89F0A42FFFE5F0FC
:1000DE003EFEE433C98DF0A42EFEE5F039CD8AF054
:1000EE00A42FFFE5F03EFEE43DFD33D0E0FB5007CC
:1000FE000BBB000F0201C8EC2CFCEF33FFEE33FEFE
:06010E00ED33FD0201A02B
:1001140075F020800E75F010800575F0087D007E66
:10012400007F003392D530D50312024AEC334010DD
:10013400EF33FFEE33FEED33FDEC33FCD5F0ED226F
:0E014400E5F0247EA2D513CC92E7CDCEFF22AB
:10015200EDD2E7CD33EC3392D524814006E4FFFEA5
:10016200FDFC22FCE4CFCECDCC24E0501174FF8004
:10017200EDC3CC13CCCD13CDCE13CECF13CF0470A1
:07018200F030D5DE02024A55
:10018900E9D2E7C933E833F892D5EDD2E7CD33ECBC
:0701990033FC5002B2D52235
:1001A000EC30E7100FBF000C0EBE00080DBD0004C0
:1001B0000BEB6014A2D5EB13FCED92E7FD2274FF6C
:1001C000FCFDFEFF22E480F8A2D574FF13FC7D80C5
:0301D000E480EFD9
:03000000020551A5
:0C055100787FE4F6D8FD7581580205980B
:1001D300C2D530F707B2D563F0FF05F030E70CB2B4
:1001E300D5F4048463F0FF05F080018430D502F474
:0201F3000422E4
:1001F500BC000BBE0029EF8DF084FFADF022E4CCEE
:10020500F875F008EF2FFFEE33FEEC33FCEE9DECB6
:10021500984005FCEE9DFE0FD5F0E9E4CEFD22EDFC
:10022500F8F5F0EE8420D21CFEADF075F008EF2F46
:10023500FFED33FD4007985006D5F0F222C398FD37
:050245000FD5F0EA22D4
:0E024A00C3E49FFFE49EFEE49DFDE49CFC22C5
:10055D00020258E493A3F8E493A34003F68001F25A
:10056D0008DFF48029E493A3F85407240CC8C3339F
:10057D00C4540F4420C8834004F456800146F6DF6E
:10058D00E4800B010204081020408090082DE47EC9
:10059D00019360BCA3FF543F30E509541FFEE49363
:1005AD00A360010ECF54C025E060A840B8E493A32A
:1005BD00FAE493A3F8E493A3C8C582C8CAC583CA55
:1005CD00F0A3C8C582C8CAC583CADFE9DEE780BE0D
:0108520000A5
:00000001FF
