:101022003F065B4F666D7D077F6F0102040810204B
:021032004080FC
:100C64000121000851390000000000000008387913
:100C74000000000000000002300050C10208407370
:100C840006000000000000012E00013200012D00CA
:100C9400015A19015904015011012C19012B0401A5
:100CA4002A11C103C101025E0000025C000002229D
:0E0CB4000000022400000226000002280000BA
:100FF900438E805389F0758A20758CD1C28DD28C2D
:05100900D2A9D2AF22C4
:100A3B00E4F508C2B0C2B1C2B2C2B3D2B4D2B5D21D
:100A4B00C2D2C420C403750A7020C203750AB02039
:100A5B00B503750AD020B403750AE030B40C30B579
:100A6B000930C20630C403750AF0D2B0D2B1D2B28B
:100A7B00D2B3C2B4C2B5C2C2C2C420B003750B0E8E
:100A8B0020B103750B0D20B203750B0B20B303754F
:100A9B000B0730B00C30B10930B20630B303750B15
:100AAB000FE50A450BF509E52114601B14700302D1
:100ABB000B6824026003020B6FE509F47003020B51
:100ACB006F752101020B6FE509F47005F521020B1F
:100ADB006FE5091208C90B15770B1A7B0B1F7D0BE2
:100AEB00247E0B29B70B2EBB0B33BD0B38BE0B3D36
:100AFB00D70B42DB0B47DD0B4CDE0B51E70B56EBF9
:100B0B000B5BED0B60EE00000B6375080480497501
:100B1B0008058044750806803F750807803A7508FC
:100B2B00088035750809803075080A802B75080B0D
:100B3B00802675080C802175080D801C75080E80A9
:100B4B001775080F8012750810800D750811800835
:100B5B0075081280037508137521028007E509F4E7
:060B6B007002F521AF0845
:010B71002261
:100DF800E5A0541F4480F5A07580FF53A01FE5A00F
:100E0800541F44A0F5A0C284C28653A01FE5A05475
:100E18001F44C0F5A0E4F58053A01FE5A0541F446B
:0A0E2800E0F5A07580FF53A01F2223
:10000E00120FF9120DF87B327D3B7F10120BFEC2E0
:10001E00AF7F81120DBB8F2F7F83120DBB8F337F6E
:10002E0085120DBB8F35D2AFE535C4540F9010221B
:10003E0093F548E535540F93F549754A40E533C4B9
:10004E00540F93F54BE533540F93F54C754D40E536
:10005E002FC4540F93F54EE52F540F93F54F2000F8
:10006E000302015FC200120D711207C38E308F3171
:10007E007C007D6412086674222FF58274103EF5A2
:10008E0083E493F556AE30AF317C007D0A120866DC
:10009E007C007D0A12086674222DF58274103CF5E0
:1000AE0083E4934480F557AE30AF317C007D0A1265
:1000BE00086674222DF58274103CF583E493F5588E
:1000CE007F01120E67AC07E412078FE4FBFA797F0B
:1000DE0078431206E8E4FBFA79FA78431205DF1248
:1000EE0007C38E368F377C007D6412086674222F0C
:1000FE00F58274103EF583E4934480F53AAE36AF44
:10010E00377C007D0A1208667C007D0A1208667430
:10011E00222DF58274103CF583E493F53BAE36AF99
:10012E00377C007D0A12086674222DF58274103C0D
:10013E00F583E493F53CD3E5379450E536940040CF
:10014E0004D2028002C202A202E43390102293F57E
:10015E003FE55B24FB605124FD70030202821470A4
:10016E000302036024056003020448052EE52E6495
:10017E0002700DF52E852A50852C5A852B59F53295
:10018E00E52E6401701FF52DE55075F00A12084436
:10019E00FF3395E0FE74222FF58274103EF583E452
:1001AE0093F546F547020445E52E6401600302020D
:1001BE0075052DE52D64037002F52DE52D703E902D
:1001CE00102393F541E55075F00A120844FF33955C
:1001DE00E0FE74222FF58274103EF583E493F5460B
:1001EE00E55075F00A120844AFF0EF3395E0FE7457
:1001FE00222FF58274103EF583E493F547E52D64C6
:10020E0001703E90102493F541E55A75F00A1208DC
:10021E0044FF3395E0FE74222FF58274103EF58371
:10022E00E493F546E55A75F00A120844AFF0EF3341
:10023E0095E0FE74222FF58274103EF583E493F55B
:10024E0047E52D6402702A90102593F541E4F5469A
:10025E00AF59EF3395E0FE74222FF58274103EF500
:10026E0083E493F547800A0532E53264037002F5A4
:10027E0032020445E52E6401600302035DAF2DFEDC
:10028E00EF704A152AAD2AED3395E0C36480948051
:10029E005003E4F52AE52A75F00A120844FD339559
:1002AE00E0FC74222DF58274103CF583E493F54640
:1002BE00E52A75F00A120844ADF0ED3395E0FC74B2
:1002CE00222DF58274103CF583E493F547EF64011B
:1002DE004E704A152CAF2CEF3395E0C3648094809A
:1002EE005003E4F52CE52C75F00A120844FF339503
:1002FE00E0FE74222FF58274103EF583E493F546EA
:10030E00E52C75F00A120844AFF0EF3395E0FE7459
:10031E00222FF58274103EF583E493F547E52D64A4
:10032E0002702C152BAF2BEF3395E0FEC3EF940428
:10033E00EE648094805003752B04AF2BEF3395E061
:10034E00FE74222FF58274103EF583E493F5470276
:10035E000445E52E64016003020445AF2DFEEF70E7
:10036E004F052AAD2AED3395E0FCD3ED9417EC64DE
:10037E008094804003752A17E52A75F00A12084406
:10038E00FD3395E0FC74222DF58274103CF583E468
:10039E0093F546E52A75F00A120844ADF0ED339553
:1003AE00E0FC74222DF58274103CF583E493F5473E
:1003BE00EF64014E704F052CAF5AEF3395E0FED32C
:1003CE00EF9463EE648094804003752C63E52C7586
:1003DE00F00A120844FF3395E0FE74222FF5827462
:1003EE00103EF583E493F546E52C75F00A120844A9
:1003FE00AFF0EF3395E0FE74222FF58274103EF5C8
:10040E0083E493F547E52D6402702C052BAF2BEF9B
:10041E003395E0FED3EF9408EE648094804003752C
:10042E002B08AF2BEF3395E0FE74222FF58274105C
:10043E003EF583E493F547E4F55BE52D7044E52E38
:10044E006401703E90102393F541E52A75F00A126F
:10045E000844FF3395E0FE74222FF58274103EF5AA
:10046E0083E493F546E52A75F00A120844AFF0EFDF
:10047E003395E0FE74222FF58274103EF583E493DB
:10048E00F547E535C4540F75F00AA4FFE535540F52
:10049E002FF534AF50EF3395E0FED3EF9408EE64B2
:1004AE008094804025AD347C00ED9FEE6480F8741E
:1004BE008098500AC3ED94087480948050077F0191
:1004CE00120D1A80057F01120CC3AF50EF3395E069
:1004DE00FEC3EF9408EE648094805025AD347C000A
:1004EE00C3ED9FEE6480F87480984010ED9408740C
:1004FE0080948050077F01120D1A80057F01120C27
:10050E00C3AE30AF317C007D0A120866AD5AED33B2
:10051E0095E0FCC3EF9DEE9C7F025005120D1A80F4
:10052E0003120CC3C2AFAF59EF3395E0FEEF640474
:10053E004E7F047005120D1A8003120CC3AF59EFD3
:10054E003395E0FEEF64054E7F057005120D1A809F
:10055E0003120CC3AF59EF3395E0FEEF64064E7FE6
:10056E00067005120D1A8003120CC3AF59EF3395A6
:10057E00E0FEEF64074E7F077005120D1A8003121E
:10058E000CC3AF59EF3395E0FEEF64084E7F087051
:10059E0005120D1A8003120CC3300214E55FB4B8B5
:1005AE000DE55EB40B08E55D455C70148019801096
:1005BE00E55DB4B812E55CB40B0DE55F455E700702
:1005CE007F03120CC380057F03120D1AD2AF0200F7
:0105DE001DFF
:03000B000208EFF9
:1008EF00C0E0C083C082C0D075D000C000C006C0B9
:0108FF0007F1
:100900000523E523700205220525E525700205244F
:100910000529E52970020528E525640A4524700BA0
:10092000120A3B8F5B752400752500E529B42C0D58
:10093000E528B40108752800752900D200E5236474
:1009400002452260030209E8F522F523E5A0541FC1
:1009500044C0F5A075800053A01FE52E7046AF324D
:10096000FEEF7014E5A0541F44E0F5A0744825275D
:10097000F8E6F4F58053A01FEF64014E7014E5A073
:10098000541F44E0F5A074512527F8E6F4F5805390
:10099000A01FE53264027020E5A0541F44E0F5A0DA
:1009A0007438800AE5A0541F44E0F5A07440252760
:1009B000F8E6F4F58053A01FE5A0541F44C0F5A04D
:1009C000742C2527F58274103526F583E493F58081
:1009D00053A01F7580FF0527E527700205266408D0
:1009E00045267004F526F527300219055FE55F708E
:1009F00002055ED394B8E55E940B400E755E0B75F0
:100A00005FB88006755E00755F00200219055DE520
:100A10005D7002055CD394B8E55C940B400E755C88
:0C0A20000B755DB88006755C00755D000C
:0F0A2C00D007D006D000D0D0D082D083D0E03217
:100F9300E4FEEEC3940874809480500FC297EF135D
:0B0FA30092A3EFC313FFD2970E80E76C
:010FAE002220
:10100E00C29300C29700D29300120F93AF05120F36
:04101E0093C29322C4
:100DBB00E4FDC29300C29700D29300120F93E4FF9D
:100DCB00EFC39408748094805011C297EDC313FD48
:100DDB0030A303430580D2970F80E5C29300C297DF
:0C0DEB0000D29700C2A300D2A300AF0505
:010DF70022D9
:100BFE00AC07AA05E4FD7F8E12100EEB75F00A12FB
:100C0E000844C454F0FFEB75F00A120844AEF0EF3E
:100C1E002EFD7F8012100EEA75F00A120844C4549D
:100C2E00F0FFEA75F00A120844AEF0EF2EFD7F8257
:100C3E0012100EEC75F00A120844C454F0FFEC7555
:100C4E00F00A120844AEF0EF2EFD7F8412100E7DD6
:060C5E00807F8E02100EE3
:040F58007F057E0093
:100F5C00EF1FAA0670011E4A600FE4FDEDC3940C4E
:090F6C007480948050EA0D80F3BA
:010F75002259
:020EC100A9077F
:100EC300E4FBEBC39408748094805012C294E9133A
:100ED3009294120F58D294E9C313F90B80E47F055F
:050EE3007E00020F5C1F
:100F3500E4FBEBC39408748094805014C294ECC312
:100F450013FCD294309403430480120F580B80E2B3
:020F5500AF04E7
:010F57002277
:100EE800C205D2947F0C7E00120F5CC2947F507EA4
:100EF80000120F5CD2947F0A7E00120F5CA29492BB
:060F080005120F58A205BE
:010F0E0022C0
:100D7100120EE87FCC120EC17F44120EC17FC87ED5
:100D810000120F5C120EE87FCC120EC17FBE120E54
:100D9100C1120F35A907120F35EFFEE9FFE4AD07C8
:100DA100AC0612078AE4FBFA7920783F1205DF12BC
:0A0DB10007C3AD07AC06E402078A91
:04104300D2A07F05B3
:0810470000AE071FEE70F92254
:0F103400D2A1121043C2A17F05121047C2A02201
:0C104F00C2A1121043D2A17F050210477D
:100FE200C2A0A20492A17F05121047121043C2A010
:070FF200D2A17F05021047A8
:0A0FAF00C2AF1210347FA0120E3200
:100FB900121043A2A19205C2A07F05121047A205F3
:010FC9002205
:020E3200AD070A
:100E3400E4FCECC39408748094805024C2A07F0521
:100E4400121047ED30E704D2A18002C2A17F05123F
:100E54001047D2A0ED25E0FD7F051210470C80D28B
:020E6400C2A02A
:010E66002269
:100F0F00E4FCECC39408748094805017121043EDE6
:100F1F0025E0FD30A103430501C2A07F0512104754
:050F2F000C80DFAF059E
:010F3400229A
:020E9900AB07A5
:100E9B00120FAFAF03120E32120FB91210347FA123
:100EAB00120E32120FB9120F0FAD07120FB912102B
:050EBB004FD2AFAF05AE
:010EC000220F
:100F7600AB05AA07120FAFAF02120E32120FB9AFAE
:0D0F860003120E32120FB912104FD2AF221B
:020E6700AB07D7
:100E6900C2AF1210347F90120E32120FB9AF0312B3
:100E79000E32120FB91210347F91120E32120FB9BD
:0F0E8900120F0FAD07120FB912104FD2AFAF05F6
:010E98002237
:100FCA00AB071210347F90120E32120FB9AF031210
:080FDA000E32120FB902104F94
:100CC300E5A0541F4480F5A0EF14B40800504490ED
:100CD3000CE075F003A4C58325F0C58373020CF8FB
:100CE300020CFC020D00020D04020D08020D0C02A1
:100CF3000D10020D14D280801AD2818016D2828008
:100D030012D283800ED284800AD2858006D2868056
:070D130002D28753A01F224A
:100D1A00E5A0541F4480F5A0EF14B4080050449095
:100D2A000D3775F003A4C58325F0C58373020D4FF3
:100D3A00020D53020D57020D5B020D5F020D630295
:100D4A000D67020D6BC280801AC2818016C2828032
:100D5A0012C283800EC284800AC2858006C286803F
:070D6A0002C28753A01F2203
:1005DF00EC4D6011E8497017ED33EC3304600DE416
:1005EF00FCFFFEFD22E933E8330470F802082F12F6
:1005FF0007FA58046009E4CC2481500628500902F8
:10060F000839284003020836C0E0EB4A7044B9802D
:10061F0006D0E0FB020825EF4E701CBD8008EBFFF3
:10062F00EAFEE9FD80EBE98DF0A4FEE5F00206C8D5
:10063F00E9CDF9EAFEEBFFEF89F0A4FCE5F0CE89F6
:10064F00F0A42EFFE435F0CD89F0A42DFEE435F0B3
:10065F008067EF4E7005BD80D780C3EF8BF0A4ACE1
:10066F00F0EE8BF0A42CFCE435F0F8EF8AF0A42C1C
:10067F00E5F038FCE433CB8DF0A42CFCE5F03BF82F
:10068F00EE8AF0A42CFCE5F038F8E433CF89F0A41F
:10069F002CFCE5F038CF3400CE89F0A42FFFE5F025
:1006AF003EFEE433C98DF0A42EFEE5F039CD8AF07D
:1006BF00A42FFFE5F03EFEE43DFD33D0E0FB5007F5
:1006CF000BBB000F020839EC2CFCEF33FFEE33FEAF
:0606DF00ED33FD020811DD
:1006E500020839EC5D046005E85904700302082F1F
:1006F5001207FA580460F6EC4860F2EC7004FDFE4F
:10070500FF22C860DB2481C85009C39860025006E7
:100715000208369850CAF582E9294B4A7005AB8222
:1007250002082575F0007C1A7880C3EF9BEE9AEDE0
:1007350099400DC3EF9BFFEE9AFEED99FDE842F05F
:10074500DC23ACF0D0E0FFD0E0FED0E0FDAB8220B2
:10075500E7101BEB60BAEC2CFCEF33FFEE33FEED3C
:1007650033FD020811E803F830E705C0F075F00025
:10077500EF2FFFEE33FEED33FD40B830E7C280AA20
:1007850075F020800E75F010800575F0087D007EEF
:10079500007F003392D530D5031208BBEC334010EF
:1007A500EF33FFEE33FEED33FDEC33FCD5F0ED22F8
:0E07B500E5F0247EA2D513CC92E7CDCEFF2234
:1007C300EDD2E7CD33EC3392D524814006E4FFFE2E
:1007D300FDFC22FCE4CFCECDCC24E0501174FF808D
:1007E300EDC3CC13CCCD13CDCE13CECF13CF04702A
:0707F300F030D5DE0208BB67
:1007FA00E9D2E7C933E833F892D5EDD2E7CD33EC45
:07080A0033FC5002B2D522BD
:10081100EC30E7100FBF000C0EBE00080DBD000448
:100821000BEB6014A2D5EB13FCED92E7FD2274FFF4
:10083100FCFDFEFF22E480F8A2D574FF13FC7D804D
:03084100E480EF61
:03000000020B727E
:0C0B7200787FE4F6D8FD75815F020BB9B6
:10084400C2D530F707B2D563F0FF05F030E70CB23C
:10085400D5F4048463F0FF05F080018430D502F4FC
:0208640004226C
:10086600BC000BBE0029EF8DF084FFADF022E4CC76
:10087600F875F008EF2FFFEE33FEEC33FCEE9DEC3F
:10088600984005FCEE9DFE0FD5F0E9E4CEFD22ED85
:10089600F8F5F0EE8420D21CFEADF075F008EF2FCF
:1008A600FFED33FD4007985006D5F0F222C398FDC0
:0508B6000FD5F0EA225D
:0E08BB00C3E49FFFE49EFEE49DFDE49CFC224E
:1008C900D083D082F8E4937012740193700DA3A3BE
:1008D90093F8740193F5828883E4737402936860D2
:0608E900EFA3A3A380DFD2
:100B7E0002000EE493A3F8E493A34003F68001F27F
:100B8E0008DFF48029E493A3F85407240CC8C33378
:100B9E00C4540F4420C8834004F456800146F6DF47
:100BAE00E4800B0102040810204080900C64E47E67
:100BBE00019360BCA3FF543F30E509541FFEE4933C
:100BCE00A360010ECF54C025E060A840B8E493A303
:100BDE00FAE493A3F8E493A3C8C582C8CAC583CA2E
:100BEE00F0A3C8C582C8CAC583CADFE9DEE780BEE6
:010CC2000031
:00000001FF
