:1005CD003F065B4F666D7D077F6F010204081020AB
:0205DD0040805C
:10049E00014000012300083800BF6D3F3F863F3FFB
:1004AE00083000BF6D3F3FBF3F3F024200000224B5
:1004BE0000000226000002280000022A0000022C82
:0204CE0000002C
:10042F0053A01F7580FF43A0807580FF53A01F53FB
:10043F00A01FE4F58043A0A0F58053A01F53A01F79
:10044F00F58043A0C0F58053A01F53A01F7580FFF8
:0A045F0043A0E07580FF53A01F22A8
:1005B800438E805389F0758ACD758CD4C28DD28CC8
:0505C800D2A9D2AF2210
:10028B00E4FFE5B0540FFEE54014602B14604F14EF
:10029B00700302033F2403600302034DE4F523EED6
:1002AB00FD3395E0FCED640F4C700302034DE4F558
:1002BB0021F52275400122EEFD3395E0FCED640F34
:1002CB004C60170522E52270020521C39403E5213A
:1002DB0064809480406C75400222E4F54022EEFD70
:1002EB003395E0FCED640F4C7007AF23F523F5401D
:1002FB0022ED640E4C7003752301ED640D4C7003FD
:10030B00752302ED640B4C7003752303ED64074CEE
:10031B0070037523040522E52270020521C3946442
:10032B00E52164809480401AE5234480FFE4F523A3
:10033B0075400322EEFD3395E0FCED640F4C70022B
:02034B00F5407B
:01034D00228D
:10000E0012042F1205B8AE42AF437C037DE81203F3
:10001E00DA74CD2FF58274053EF583E493F53CAE8C
:10002E0042AF437C007D641203DA7C007D0A12032A
:10003E00DA74CD2DF58274053CF583E4934480F596
:10004E003DAE42AF437C007D0A1203DA7C007D0A8E
:10005E001203DA74CD2DF58274053CF583E493F525
:10006E003EAE42AF437C007D0A1203DA74CD2DF50D
:10007E008274053CF583E493F53FC2AFC3E541942A
:10008E004074809480E5A0541F44805007F5A075FD
:10009E0080FE8005F5A07580FF53A01FD2AFE5430B
:1000AE0064107004E54264277033C200C284C286B5
:1000BE00E5A0541F44A0F5A0C284C28653A01FE53C
:1000CE0042C313E54313F52F9005D2E493F5349014
:1000DE0005CDE493FF4480F5358F368F37E52E241A
:1000EE00FE602E1470030201811470030201872436
:1000FE00036003020014200005E4F542F543D2002C
:10010E00E5A0541F44A0F5A0D284C28653A01F8040
:10011E0062C200E5A0541F44A0F5A0C284C286535B
:10012E00A01FE542C313E54313F52FFF7E007C03AA
:10013E007DE81203DA74CD2FF58274053EF583E463
:10014E0093F534E52F75F0648475F00A84E5F0902C
:10015E0005CD934480F535E52F75F00A8475F00AC8
:10016E0084E5F093F536E52F75F00A84E5F093F506
:0F017E00378000E4F52E020014E4F52E02001481
:03000B0002018D62
:10018D00C0E0C0F0C083C082C0D075D000C000C038
:0D019D0001C002C003C004C005C006C007B9
:1001AA000525E525700205240527E52770020526A1
:1001BA00052BE52B7002052A052DE52D7002052C6D
:1001CA00E52764084526700B12028B8F2E752600D0
:1001DA00752700E52D64C8452C700D7F011204D1E6
:1001EA008F41752C00752D00E52564014524705C4E
:1001FA00F524F525E5A0541F44C0F5A075800053E9
:10020A00A01FE5A0541F44E0300006F5A074388012
:10021A0004F5A074302529F8E6F4F58053A01FE50B
:10022A00A0541F44C0F5A074D72529F5827405355A
:10023A0028F583E493F58053A01F0529E529700268
:10024A000528640845287004F528F529E52B640A71
:10025A00452A7012F52AF52B30000B740A2543F54E
:06026A0043E43542F542B9
:10027000D007D006D005D004D003D002D001D000E2
:0B028000D0D0D082D083D0F0D0E0328C
:0405EE00D2A07F0513
:0805F20000AE071FEE70F922B4
:0F05DF00D2A11205EEC2A17F051205F2C2A02221
:0C05FA00C2A11205EED2A17F050205F29D
:1005A100C2A0A20192A17F051205F21205EEC2A01E
:0705B100D2A17F050205F253
:0A056E00C2AF1205DF7FA01204697E
:100578001205EEA2A19202C2A07F051205F2A20204
:010588002250
:02046900AD07DD
:10046B00E4FCECC39408748094805024C2A07F05F4
:10047B001205F2ED30E704D2A18002C2A17F051272
:10048B0005F2D2A0ED25E0FD7F051205F20C80D21E
:02049B00C2A0FD
:01049D00223C
:10052B00E4FCECC394087480948050171205EEED34
:10053B0025E0FD30A103430501C2A07F051205F2A2
:05054B000C80DFAF058C
:010550002288
:02050300AB0744
:1005050012056EAF031204691205781205DF7FA18B
:1005150012046912057812052BAD0712057812052C
:05052500FAD2AFAF05A2
:01052A0022AE
:10055100AB05AA0712056EAF02120469120578AF46
:0D056100031204691205781205FAD2AF22C8
:0204D100AB0777
:1004D300C2AF1205DF7F90120469120578AF0312D1
:1004E30004691205781205DF7F91120469120578F9
:0F04F30012052BAD071205781205FAD2AFAF052F
:0105020022D6
:10058900AB071205DF7F90120469120578AF0312D9
:0805990004691205780205FA5D
:0300000002034EAA
:0C034E00787FE4F6D8FD7581430203952A
:1003DA00BC000BBE0029EF8DF084FFADF022E4CC07
:1003EA00F875F008EF2FFFEE33FEEC33FCEE9DECD0
:1003FA00984005FCEE9DFE0FD5F0E9E4CEFD22ED16
:10040A00F8F5F0EE8420D21CFEADF075F008EF2F5F
:10041A00FFED33FD4007985006D5F0F222C398FD50
:05042A000FD5F0EA22ED
:10035A0002000EE493A3F8E493A34003F68001F2AB
:10036A0008DFF48029E493A3F85407240CC8C333A4
:10037A00C4540F4420C8834004F456800146F6DF73
:10038A00E4800B010204081020408090049EE47E61
:10039A00019360BCA3FF543F30E509541FFEE49368
:1003AA00A360010ECF54C025E060A840B8E493A32F
:1003BA00FAE493A3F8E493A3C8C582C8CAC583CA5A
:1003CA00F0A3C8C582C8CAC583CADFE9DEE780BE12
:0104D000002B
:00000001FF
