:0A0AC9003F065B4F666D7D077F6FEF
:1008FB00083F01020408102040800129010151002A
:10090B00C100C102C10101370001350001330001F3
:10091B003D0002380000085A3F3F403F3F403F3FF9
:10092B000221000002230000022500000227000024
:1009B800E5A0541F4480F5A07580FF53A01FE5A053
:1009C800541F44A0F5A0C284C28653A01FE5A054BA
:1009D8001F44C0F5A0E4F58053A01FE5A0541F44B0
:0A09E800E0F5A07580FF53A01F2268
:100AB400438E805389F0758ACD758CD4C28DD28CC7
:050AC400D2A9D2AF220F
:1008B30075C00175B00FE5C05404C454F0FFE5C022
:1008C300541033333354F84FFFE5B0543F4FFF75A3
:1008D300C01F75B0F0E5C0541033333354F84FFFE5
:1008E300E5C05404C454F04FFFE5B0543F4FF4FF48
:0708F30065325FF5368F321C
:0108FA0022DB
:10028200E5366017C201E4F53DF538F539E5A054CD
:100292001F4480F5A07580FF53A01FE5366481607E
:1002A2000302034AE52964017003752902E5296402
:1002B20002600302034AE5517078E53EC4540F75AB
:1002C200F00AA4FFE53E540F2FF548E53CC4540F55
:1002D20075F00AA4FFE53C540F2FF547E534C454EA
:1002E2000F75F00AA4FFE534540F2FF53BE548756E
:1002F200F00A84900AC993F52AE54875F00A84E564
:10030200F093F52B752C40E54775F00A8493F52D93
:10031200E54775F00A84E5F093F52E752F40E53B2D
:1003220075F00A8493F530E53B75F00A84E5F093A5
:10033200F5310551E55164047005F551752901AB9C
:100342003BAD47AF48120862AF367E00EF64827061
:100352001CE52964017003752903E5296403700D06
:100362000551E55164047005F551752901EF648466
:100372004E60030203FCAF29FEEF6402703BAD51F5
:10038200FCED6401700DC3E54894177480948050AD
:10039200020548ED64024C700DC3E547943B74803E
:1003A200948050020547E5516403700DC3E53B9408
:1003B2003B748094805002053BEF64034E703BAF68
:1003C20051FEEF6401700DC3E53794177480948079
:1003D20050020537EF64024E700DC3E535943B744D
:1003E20080948050020535E5516403700DC3E533F6
:1003F200943B7480948050020533E5366488600330
:10040200020493E52964017003752904AF297E0073
:10041200EF6402703BAD51FCED6401700DD3E54811
:1004220094007480948040021548ED64024C700D73
:10043200D3E54794007480948040021547E55164E7
:1004420003700DD3E53B9400748094804002153B09
:10045200EF64034E703BAF51FEEF6401700DD3E5C4
:100462003794007480948040021537EF64024E7016
:100472000DD3E53594007480948040021535E55122
:100482006403700DD3E533940074809480400215A8
:1004920033E53270047F0180027F00E53670047E0E
:1004A2000180027E00EE5F6009E529640470037535
:0304B200290122FB
:10000E001209B87B327D3B7F17120862120AB4E5E3
:10001E003775F00A84900AC993F55AE53775F00AD8
:10002E0084E5F093F55AE53575F00A8493F55DE5B0
:10003E003575F00A84E5F093F55EE53375F00A84C4
:10004E0093F560E53375F00A84E5F093F561C2AF80
:10005E007F8112097B8F347F8312097B8F3C7F85D2
:10006E0012097B8F3ED2AFE52964017036E53EC49E
:10007E00540F900AC993F549E53E540F93F54A750E
:10008E004B40E53CC4540F93F54CE53C540F93F5AF
:10009E004D754E40E534C4540F93F54FE534540F6F
:1000AE0093F550AF297E00EF6402600302017030B9
:1000BE000044AD51FCED64017017E54875F00A84FB
:1000CE00900AC993F52AE54875F00A84E5F093F590
:1000DE002BED64024C7017E54775F00A84900AC93F
:1000EE0093F52DE54775F00A84E5F093F52EE5516D
:1000FE006403706E8055AD517C00ED64017006F5A1
:10010E002AF52B8017E54875F00A84900AC993F5F5
:10011E002AE54875F00A84E5F093F52BED64024C60
:10012E007006F52DF52E8017E54775F00A84900AB6
:10013E00C993F52DE54775F00A84E5F093F52EE5A4
:10014E005164037006F530F5318017E53B75F00A02
:10015E0084900AC993F530E53B75F00A84E5F09377
:10016E00F531EF64034E600302022C300044AF51B0
:10017E00FEEF64017017E53775F00A84900AC99393
:10018E00F55AE53775F00A84E5F093F55BEF6402F6
:10019E004E7017E53575F00A84900AC993F55DE542
:1001AE003575F00A84E5F093F55EE5516403706EE3
:1001BE008055AF517E00EF64017006F55AF55B80F5
:1001CE0017E53775F00A84900AC993F55AE5377525
:1001DE00F00A84E5F093F55BEF64024E7006F55D70
:1001EE00F55E8017E53575F00A84900AC993F55DC2
:1001FE00E53575F00A84E5F093F55EE5516403701C
:10020E0006F560F5618017E53375F00A84900AC92A
:10021E0093F560E53375F00A84E5F093F561120904
:10022E003C1205F98F3AE53A75F00A84900AC993A3
:10023E00F557E53A75F00A84E5F093F55875593996
:10024E00300208C2021208B3120282E53E65376020
:10025E000302005CE53C6535600302005CE5346535
:10026E0033600302005CE5296401600302005CD286
:04027E000102005C1D
:03000B0002068862
:0D068800C0E0C0D075D000C000C006C007A3
:100695000522E522700205210524E52470020523C3
:1006A5000528E52870020527E524640A4523700618
:1006B500F523F524D202E5226402452160030207F1
:1006C5006BF521F522E5A0541F44C0F5A075800007
:1006D50053A01FAF297E00EF64017014E5A0541FDD
:1006E50044E0F5A074492526F8E6F4F58053A01FEB
:1006F500EF64024E7014E5A0541F44E0F5A0742A7F
:100705002526F8E6F4F58053A01FE5296403701447
:10071500E5A0541F44E0F5A0745A2526F8E6F4F543
:100725008053A01FE52964047014E5A0541F44E01C
:10073500F5A074522526F8E6F4F58053A01FE5A030
:10074500541F44C0F5A0743F2526F8E6F58053A054
:100755001F7580FF0526E5267002052564084525D9
:100765007004F525F526E528B4E80DE527B403085A
:10077500752700752800B20030014B0539E5397041
:10078500020538C394C8E5389400500DE5A0541F00
:100795004480F5A07580FE8016C3E5399490E53850
:1007A50094015010E5A0541F4480F5A07580FF53B7
:1007B500A01F8012053D753800753900E53D640CB4
:0607C5007004F53DC201C5
:0B07CB00D007D006D000D0D0D0E03224
:100A8100E4FEEEC3940874809480500FC297EF1374
:0B0A910092A3EFC313FFD2970E80E783
:010A9C002237
:030A9D0025F0FD44
:100AA000C29300C29700D29300120A81AF05120AC6
:040AB00081C293224A
:10097B00E4FDC29300C29700D29300120A81E4FFF8
:10098B00EFC39408748094805011C297EDC313FD8C
:10099B0030A303430580D2970F80E5C29300C29723
:0C09AB0000D29700C2A300D2A300AF0549
:0109B700221D
:10086200AC07AA05E4FD7F8E120AA0EB75F00A849C
:10087200C454F0FFEB75F00A84EF7F80120A9DEA00
:1008820075F00A84C454F0FFEA75F00A84EF7F829F
:10089200120A9DEC75F00A84C454F0FFEC75F00A5C
:1008A20084EF25F0FD7F84120AA07D807F8E020AEC
:0108B200A0A5
:040A63007F057E008D
:100A6700EF1FAA0670011E4A600FE4FDEDC3940C48
:090A77007480948050EA0D80F3B4
:010A80002253
:0209F200A90753
:1009F400E4FBEBC39408748094805012C294E9130E
:100A04009294120A63D294E9C313F90B80E47F052C
:050A14007E00020A67EC
:100A4000E4FBEBC39408748094805014C294ECC30C
:100A500013FCD294309403430480120A630B80E2A7
:020A6000AF04E1
:010A62002271
:100A1900C203D2947F0C7E00120A67C2947F507E73
:100A290000120A67D2947F0A7E00120A67A2949282
:060A390003120A63A20390
:010A3F002294
:10093C00120A197FCC1209F27F441209F27FC87E89
:10094C0000120A67120A197FCC1209F27FBE120933
:10095C00F2120A40A907120A40EFFEE9FFE4AD07C4
:0F096C00AC061205C0E4FBFA7980783D0204B5B1
:1004B500EC4D6011E8497017ED33EC3304600DE441
:1004C500FCFFFEFD22E933E8330470F802066512ED
:1004D500063058046009E4CC2481500628500902EE
:1004E500066F28400302066CC0E0EB4A7044B980F1
:1004F50006D0E0FB02065BEF4E701CBD8008EBFFEB
:10050500EAFEE9FD80EBE98DF0A4FEE5F002059E2B
:10051500E9CDF9EAFEEBFFEF89F0A4FCE5F0CE8921
:10052500F0A42EFFE435F0CD89F0A42DFEE435F0DE
:100535008067EF4E7005BD80D780C3EF8BF0A4AC0C
:10054500F0EE8BF0A42CFCE435F0F8EF8AF0A42C47
:10055500E5F038FCE433CB8DF0A42CFCE5F03BF85A
:10056500EE8AF0A42CFCE5F038F8E433CF89F0A44A
:100575002CFCE5F038CF3400CE89F0A42FFFE5F050
:100585003EFEE433C98DF0A42EFEE5F039CD8AF0A8
:10059500A42FFFE5F03EFEE43DFD33D0E0FB500720
:1005A5000BBB000F02066FEC2CFCEF33FFEE33FEA6
:0605B500ED33FD020647D4
:1005BB0075F020800E75F010800575F0087D007EBB
:1005CB00007F003392D530D50312067AEC334010FE
:1005DB00EF33FFEE33FEED33FDEC33FCD5F0ED22C4
:0E05EB00E5F0247EA2D513CC92E7CDCEFF2200
:1005F900EDD2E7CD33EC3392D524814006E4FFFEFA
:10060900FDFC22FCE4CFCECDCC24E0501174FF8058
:10061900EDC3CC13CCCD13CDCE13CECF13CF0470F5
:07062900F030D5DE02067A75
:10063000E9D2E7C933E833F892D5EDD2E7CD33EC10
:0706400033FC5002B2D52289
:10064700EC30E7100FBF000C0EBE00080DBD000414
:100657000BEB6014A2D5EB13FCED92E7FD2274FFC0
:10066700FCFDFEFF22E480F8A2D574FF13FC7D8019
:03067700E480EF2D
:030000000207D61E
:0C07D600787FE4F6D8FD75816102081DF3
:0E067A00C3E49FFFE49EFEE49DFDE49CFC2291
:1007E20002000EE493A3F8E493A34003F68001F21F
:1007F20008DFF48029E493A3F85407240CC8C33318
:10080200C4540F4420C8834004F456800146F6DFE6
:10081200E4800B01020408102040809008FBE47E73
:10082200019360BCA3FF543F30E509541FFEE493DB
:10083200A360010ECF54C025E060A840B8E493A3A2
:10084200FAE493A3F8E493A3C8C582C8CAC583CACD
:10085200F0A3C8C582C8CAC583CADFE9DEE780BE85
:01093B0000BB
:00000001FF
