:100822003F065B4F666D7D077F6F01020408102053
:02083200408004
:10071E00014500012300C100C102C10101310004E5
:10072E003201051E3C013800012F00022400000298
:0F073E0026000002280000022A0000022C000002
:1006AC0053A01F7580FF43A0807580FF53A01F537C
:1006BC00A01FE4F58043A0A0F58053A01F53A01FFA
:1006CC00F58043A0C0F58053A01F53A01F7580FF79
:0A06DC0043A0E07580FF53A01F2229
:1007F900438E805389F0758ACD758CD4C28DD28C85
:05080900D2A9D2AF22CC
:1004C400E4FFE5B0540FFEE54514602B14604F14AF
:1004D400700302057824036003020586E4F523EE25
:1004E400FD3395E0FCED640F4C7003020586E4F5E2
:1004F40021F52275450122EEFD3395E0FCED640FF4
:100504004C60170522E52270020521C39403E521FE
:1005140064809480406C75450222E4F54522EEFD2A
:100524003395E0FCED640F4C7007AF23F523F545DC
:1005340022ED640E4C7003752301ED640D4C7003C1
:10054400752302ED640B4C7003752303ED64074CB3
:1005540070037523040522E52270020521C3946407
:10056400E52164809480401AE5234480FFE4F52368
:1005740075450322EEFD3395E0FCED640F4C7002EB
:02058400F5453B
:010586002252
:100215001206AC7B327D3B7F17120613E4F55EC3F5
:10022500E55E940A7480948050071206E6055E80A8
:10023500EE1206E61207F9C2AF7F8112066F8F37FD
:100245007F8312066F8F437F8512066F8F44D2AF6F
:10025500E544C4540F90082293F54EE544540F939A
:10026500F54FE543C4540F93F551E543540F93F50A
:1002750052E537C4540F93F554E537540F93F555AC
:100285007432252EF8E6FF75F00A8493F54CEF7568
:10029500F00A84E5F093F54D754B40E53024FE609A
:1002A5001814603714604524037052E538640270F1
:1002B50049F538F531F52F8041E5386402701AC2E9
:1002C50001052FE52F640A7002F52FE5A0541F44A0
:1002D50080F5A07580FF53A01F801FE538700B7552
:1002E50038017432252EF8E6F536800EE538700AA9
:1002F500052EE52E64047002F52EE4F53030022358
:10030500C202C3E531940A7480948050111206E646
:1003150012015274392531F8A60705318005753863
:1003250002D201E5386402600302023C755640E5DD
:100335002F75F00A8490082293F557E52F75F00A7A
:1003450084E5F093F558E4F559F55A755B40743931
:10035500252FF8E6FF75F00A8493F55CEF75F00A32
:0903650084E5F093F55D02023C11
:03000B0002036E7F
:10036E00C0E0C0F0C083C082C0D075D000C000C055
:07037E0004C005C006C00722
:100385000525E525700205240527E52770020526C4
:10039500052BE52B7002052A64E87004E52A640341
:1003A5007030F52AF52BB200300006F550F5538074
:1003B50006755040755340300118E5A0541F448020
:1003C500300007F5A07580FE8005F5A07580FF5308
:1003D500A01FE527640A4526700B1204C48F3075EB
:1003E5002600752700E5256402452460030204867E
:1003F500F524F525E5A0541F44C0F5A075800053EC
:10040500A01FAF387E00EF7014E5A0541F44E0F53F
:10041500A074462529F8E6F4F58053A01FEF640182
:100425004E7014E5A0541F44E0F5A0744E2529F83C
:10043500E6F4F58053A01FE53864027014E5A05476
:100445001F44E0F5A074562529F8E6F4F58053A07D
:100455001FE5A0541F44C0F5A0742C2529F582740E
:10046500083528F583E493F58053A01F7580FF05B3
:1004750029E52970020528640845287004F528F542
:1004850029E53864017023052DE52D7002052CAF93
:10049500367E007C037DE81201F5EFB52D0CEEB537
:0A04A5002C08752C00752D00D20202
:1004AF00D007D006D005D004D000D0D0D082D083D2
:0504BF00D0F0D0E03296
:1007DD00E4FEEEC3940874809480500FC297EF131B
:0B07ED0092A3EFC313FFD2970E80E72A
:0107F80022DE
:10080E00C29300C29700D293001207DDAF05120704
:04081E00DDC2932282
:10066F00E4FDC29300C29700D293001207DDE4FFAE
:10067F00EFC39408748094805011C297EDC313FD9B
:10068F0030A303430580D2970F80E5C29300C29732
:0C069F0000D29700C2A300D2A300AF0558
:0106AB00222C
:10061300AC07AA05E4FD7F8E12080EEB75F00A12F3
:1006230001D3C454F0FFEB75F00A1201D3AEF0EF1F
:100633002EFD7F8012080EEA75F00A84C454F0FF81
:10064300EA75F00A84EF25F0FD7F8212080EEC753F
:10065300F00A84C454F0FFEC75F00A84EF25F0FD32
:0C0663007F8412080E7D807F8E02080E3E
:0407BF007F057E0034
:1007C300EF1FAA0670011E4A600FE4FDEDC3940CEF
:0907D3007480948050EA0D80F35B
:0107DC0022FA
:02074E00A907F9
:10075000E4FBEBC39408748094805012C294E913B4
:1007600092941207BFD294E9C313F90B80E47F057A
:050770007E000207C33A
:10079C00E4FBEBC39408748094805014C294ECC3B3
:1007AC0013FCD2943094034304801207BF0B80E2F5
:0207BC00AF0488
:0107BE002218
:10077500C203D2947F0C7E001207C3C2947F507EC1
:10078500001207C3D2947F0A7E001207C3A2949277
:06079500031207BFA203DE
:01079B00223B
:1006E6001207757FCC12074E7F4412074E1207750C
:1006F6007FCC12074E7FBE12074E12079CA9071227
:10070600079CEFFEE9FFE4AD07AC06120119E4FB16
:08071600FA7980783D02000E23
:10000E00EC4D6011E8497017ED33EC3304600DE4EC
:10001E00FCFFFEFD22E933E8330470F80201BE1244
:10002E00018958046009E4CC248150062850090245
:10003E0001C82840030201C5C0E0EB4A7044B980F4
:10004E0006D0E0FB0201B4EF4E701CBD8008EBFF42
:10005E00EAFEE9FD80EBE98DF0A4FEE5F00200F783
:10006E00E9CDF9EAFEEBFFEF89F0A4FCE5F0CE89CD
:10007E00F0A42EFFE435F0CD89F0A42DFEE435F08A
:10008E008067EF4E7005BD80D780C3EF8BF0A4ACB8
:10009E00F0EE8BF0A42CFCE435F0F8EF8AF0A42CF3
:1000AE00E5F038FCE433CB8DF0A42CFCE5F03BF806
:1000BE00EE8AF0A42CFCE5F038F8E433CF89F0A4F6
:1000CE002CFCE5F038CF3400CE89F0A42FFFE5F0FC
:1000DE003EFEE433C98DF0A42EFEE5F039CD8AF054
:1000EE00A42FFFE5F03EFEE43DFD33D0E0FB5007CC
:1000FE000BBB000F0201C8EC2CFCEF33FFEE33FEFE
:06010E00ED33FD0201A02B
:1001140075F020800E75F010800575F0087D007E66
:10012400007F003392D530D503120207EC33401020
:10013400EF33FFEE33FEED33FDEC33FCD5F0ED226F
:0E014400E5F0247EA2D513CC92E7CDCEFF22AB
:10015200EDD2E7CD33EC3392D524814006E4FFFEA5
:10016200FDFC22FCE4CFCECDCC24E0501174FF8004
:10017200EDC3CC13CCCD13CDCE13CECF13CF0470A1
:07018200F030D5DE02020798
:10018900E9D2E7C933E833F892D5EDD2E7CD33ECBC
:0701990033FC5002B2D52235
:1001A000EC30E7100FBF000C0EBE00080DBD0004C0
:1001B0000BEB6014A2D5EB13FCED92E7FD2274FF6C
:1001C000FCFDFEFF22E480F8A2D574FF13FC7D80C5
:0301D000E480EFD9
:030000000205876F
:0C058700787FE4F6D8FD75815E0205CE99
:1001D300C2D530F707B2D563F0FF05F030E70CB2B4
:1001E300D5F4048463F0FF05F080018430D502F474
:0201F3000422E4
:1001F500EF8DF0A4A8F0CF8CF0A428CE8DF0A42E1E
:02020500FE22D7
:0E020700C3E49FFFE49EFEE49DFDE49CFC2208
:10059300020215E493A3F8E493A34003F68001F267
:1005A30008DFF48029E493A3F85407240CC8C33369
:1005B300C4540F4420C8834004F456800146F6DF38
:1005C300E4800B010204081020408090071EE47EA3
:1005D300019360BCA3FF543F30E509541FFEE4932D
:1005E300A360010ECF54C025E060A840B8E493A3F4
:1005F300FAE493A3F8E493A3C8C582C8CAC583CA1F
:10060300F0A3C8C582C8CAC583CADFE9DEE780BED6
:01074D0000AB
:00000001FF
