:101025003F065B4F666D7D077F6F01020408102048
:021035004080F9
:100C67000121000851390000000000000008387910
:100C77000000000000000002300050C1020840736D
:100C870006000000000000012E00013200012D00C7
:100C9700015A19015904015011012C19012B0401A2
:100CA7002A11C103C101025E0000025C000002229A
:0E0CB7000000022400000226000002280000B7
:100FFC00438E805389F0758A20758CD1C28DD28C2A
:05100C00D2A9D2AF22C1
:100A3E00E4F508C2B0C2B1C2B2C2B3D2B4D2B5D21A
:100A4E00C2D2C420C403750A7020C203750AB02036
:100A5E00B503750AD020B403750AE030B40C30B576
:100A6E000930C20630C403750AF0D2B0D2B1D2B288
:100A7E00D2B3C2B4C2B5C2C2C2C420B003750B0E8B
:100A8E0020B103750B0D20B203750B0B20B303754C
:100A9E000B0730B00C30B10930B20630B303750B12
:100AAE000FE50A450BF509E52114601B14700302CE
:100ABE000B6B24026003020B72E509F47003020B48
:100ACE0072752101020B72E509F47005F521020B16
:100ADE0072E5091208CC0B18770B1D7B0B227D0BD0
:100AEE00277E0B2CB70B31BB0B36BD0B3BBE0B4021
:100AFE00D70B45DB0B4ADD0B4FDE0B54E70B59EBE7
:100B0E000B5EED0B63EE00000B66750804804975F5
:100B1E0008058044750806803F750807803A7508F9
:100B2E00088035750809803075080A802B75080B0A
:100B3E00802675080C802175080D801C75080E80A6
:100B4E001775080F8012750810800D750811800832
:100B5E0075081280037508137521028007E509F4E4
:060B6E007002F521AF0842
:010B7400225E
:100DFB00E5A0541F4480F5A07580FF53A01FE5A00C
:100E0B00541F44A0F5A0C284C28653A01FE5A05472
:100E1B001F44C0F5A0E4F58053A01FE5A0541F4468
:0A0E2B00E0F5A07580FF53A01F2220
:10000E00120FFC120DFB7B327D3B7F10120C01C2D6
:10001E00AF7F81120DBE8F2F7F83120DBE8F337F68
:10002E0085120DBE8F35D2AFE535C4540F90102515
:10003E0093F548E535540F93F549754A40E533C4B9
:10004E00540F93F54BE533540F93F54C754D40E536
:10005E002FC4540F93F54EE52F540F93F54F2000F8
:10006E000302015FC200120D741207C68E308F316B
:10007E007C007D6412086974252FF58274103EF59C
:10008E0083E493F556AE30AF317C007D0A120869D9
:10009E007C007D0A12086974252DF58274103CF5DA
:1000AE0083E4934480F557AE30AF317C007D0A1265
:1000BE00086974252DF58274103CF583E493F55888
:1000CE007F01120E6AAC07E4120792E4FBFA797F05
:1000DE0078431206EBE4FBFA79FA78431205E21242
:1000EE0007C68E368F377C007D6412086974252F03
:1000FE00F58274103EF583E4934480F53AAE36AF44
:10010E00377C007D0A1208697C007D0A120869742A
:10011E00252DF58274103CF583E493F53BAE36AF96
:10012E00377C007D0A12086974252DF58274103C07
:10013E00F583E493F53CD3E5379450E536940040CF
:10014E0004C2028002D202A202E43390102593F57B
:10015E003FE55B24FB605124FD70030202821470A4
:10016E000302036024056003020448052EE52E6495
:10017E0002700DF52E852A50852C5A852B59F53295
:10018E00E52E6401701FF52DE55075F00A12084733
:10019E00FF3395E0FE74252FF58274103EF583E44F
:1001AE0093F546F547020445E52E6401600302020D
:1001BE0075052DE52D64037002F52DE52D703E902D
:1001CE00102693F541E55075F00A120847FF339556
:1001DE00E0FE74252FF58274103EF583E493F54608
:1001EE00E55075F00A120847AFF0EF3395E0FE7454
:1001FE00252FF58274103EF583E493F547E52D64C3
:10020E0001703E90102793F541E55A75F00A1208D9
:10021E0047FF3395E0FE74252FF58274103EF5836B
:10022E00E493F546E55A75F00A120847AFF0EF333E
:10023E0095E0FE74252FF58274103EF583E493F558
:10024E0047E52D6402702A90102893F541E4F54697
:10025E00AF59EF3395E0FE74252FF58274103EF5FD
:10026E0083E493F547800A0532E53264037002F5A4
:10027E0032020445E52E6401600302035DAF2DFEDC
:10028E00EF704A152AAD2AED3395E0C36480948051
:10029E005003E4F52AE52A75F00A120847FD339556
:1002AE00E0FC74252DF58274103CF583E493F5463D
:1002BE00E52A75F00A120847ADF0ED3395E0FC74AF
:1002CE00252DF58274103CF583E493F547EF640118
:1002DE004E704A152CAF2CEF3395E0C3648094809A
:1002EE005003E4F52CE52C75F00A120847FF339500
:1002FE00E0FE74252FF58274103EF583E493F546E7
:10030E00E52C75F00A120847AFF0EF3395E0FE7456
:10031E00252FF58274103EF583E493F547E52D64A1
:10032E0002702C152BAF2BEF3395E0FEC3EF940428
:10033E00EE648094805003752B04AF2BEF3395E061
:10034E00FE74252FF58274103EF583E493F5470273
:10035E000445E52E64016003020445AF2DFEEF70E7
:10036E004F052AAD2AED3395E0FCD3ED9417EC64DE
:10037E008094804003752A17E52A75F00A12084703
:10038E00FD3395E0FC74252DF58274103CF583E465
:10039E0093F546E52A75F00A120847ADF0ED339550
:1003AE00E0FC74252DF58274103CF583E493F5473B
:1003BE00EF64014E704F052CAF5AEF3395E0FED32C
:1003CE00EF9463EE648094804003752C63E52C7586
:1003DE00F00A120847FF3395E0FE74252FF582745C
:1003EE00103EF583E493F546E52C75F00A120847A6
:1003FE00AFF0EF3395E0FE74252FF58274103EF5C5
:10040E0083E493F547E52D6402702C052BAF2BEF9B
:10041E003395E0FED3EF9408EE648094804003752C
:10042E002B08AF2BEF3395E0FE74252FF582741059
:10043E003EF583E493F547E4F55BE52D7044E52E38
:10044E006401703E90102693F541E52A75F00A126C
:10045E000847FF3395E0FE74252FF58274103EF5A4
:10046E0083E493F546E52A75F00A120847AFF0EFDC
:10047E003395E0FE74252FF58274103EF583E493D8
:10048E00F547E535C4540F75F00AA4FFE535540F52
:10049E002FF534AF50EF3395E0FED3EF9408EE64B2
:1004AE008094804025AD347C00ED9FEE6480F8741E
:1004BE008098500AC3ED94087480948050077F0191
:1004CE00120D1D80057F01120CC6AF50EF3395E063
:1004DE00FEC3EF9408EE648094805025AD347C000A
:1004EE00C3ED9FEE6480F87480984010ED9408740C
:1004FE0080948050077F01120D1D80057F01120C24
:10050E00C6AE30AF317C007D0A120869AD5AED33AC
:10051E0095E0FCC3EF9DEE9C7F025005120D1D80F1
:10052E0003120CC6C2AF300273AF59EF3395E0FE23
:10053E00EF64044E7F047005120D1D8003120CC66D
:10054E00AF59EF3395E0FEEF64054E7F057005124F
:10055E000D1D8003120CC6AF59EF3395E0FEEF640C
:10056E00064E7F067005120D1D8003120CC6AF5984
:10057E00EF3395E0FEEF64074E7F077005120D1DF9
:10058E008003120CC6AF59EF3395E0FEEF64084EB0
:10059E007F087005120D1D8003120CC6200214E593
:1005AE005DB4B80DE55CB40B08E55F455E70148074
:1005BE00198010E55FB4B812E55EB40B0DE55D452C
:1005CE005C70077F03120D1D80057F03120CC6D2CF
:0405DE00AF02001D4B
:03000B000208F2F6
:1008F200C0E0C083C082C0D075D000C000C006C0B6
:0109020007ED
:100903000523E523700205220525E525700205244C
:100913000529E52970020528E525640A4524700B9D
:10092300120A3E8F5B752400752500E529B42C0D52
:10093300E528B40108752800752900D200E5236471
:1009430002452260030209EBF522F523E5A0541FBB
:1009530044C0F5A075800053A01FE52E7046AF324A
:10096300FEEF7014E5A0541F44E0F5A0744825275A
:10097300F8E6F4F58053A01FEF64014E7014E5A070
:10098300541F44E0F5A074512527F8E6F4F580538D
:10099300A01FE53264027020E5A0541F44E0F5A0D7
:1009A3007438800AE5A0541F44E0F5A0744025275D
:1009B300F8E6F4F58053A01FE5A0541F44C0F5A04A
:1009C300742F2527F58274103526F583E493F5807B
:1009D30053A01F7580FF0527E527700205266408CD
:1009E30045267004F526F527200219055DE55D709F
:1009F30002055CD394B8E55C940B400E755C0B75F3
:100A03005DB88006755C00755D00300219055FE511
:100A13005F7002055ED394B8E55E940B400E755E7D
:0C0A23000B755FB88006755E00755F0003
:0F0A2F00D007D006D000D0D0D082D083D0E03214
:100F9600E4FEEEC3940874809480500FC297EF135A
:0B0FA60092A3EFC313FFD2970E80E769
:010FB100221D
:10101100C29300C29700D29300120F96AF05120F30
:0410210096C29322BE
:100DBE00E4FDC29300C29700D29300120F96E4FF97
:100DCE00EFC39408748094805011C297EDC313FD45
:100DDE0030A303430580D2970F80E5C29300C297DC
:0C0DEE0000D29700C2A300D2A300AF0502
:010DFA0022D6
:100C0100AC07AA05E4FD7F8E121011EB75F00A12F4
:100C11000847C454F0FFEB75F00A120847AEF0EF35
:100C21002EFD7F80121011EA75F00A120847C45494
:100C3100F0FFEA75F00A120847AEF0EF2EFD7F8251
:100C4100121011EC75F00A120847C454F0FFEC754C
:100C5100F00A120847AEF0EF2EFD7F841210117DCD
:060C6100807F8E021011DD
:040F5B007F057E0090
:100F5F00EF1FAA0670011E4A600FE4FDEDC3940C4B
:090F6F007480948050EA0D80F3B7
:010F78002256
:020EC400A9077C
:100EC600E4FBEBC39408748094805012C294E91337
:100ED6009294120F5BD294E9C313F90B80E47F0559
:050EE6007E00020F5F19
:100F3800E4FBEBC39408748094805014C294ECC30F
:100F480013FCD294309403430480120F5B0B80E2AD
:020F5800AF04E4
:010F5A002274
:100EEB00C205D2947F0C7E00120F5FC2947F507E9E
:100EFB0000120F5FD2947F0A7E00120F5FA29492B2
:060F0B0005120F5BA205B8
:010F110022BD
:100D7400120EEB7FCC120EC47F44120EC47FC87EC9
:100D840000120F5F120EEB7FCC120EC47FBE120E48
:100D9400C4120F38A907120F38EFFEE9FFE4AD07BC
:100DA400AC0612078DE4FBFA7920783F1205E212B3
:0A0DB40007C6AD07AC06E402078D88
:04104600D2A07F05B0
:08104A0000AE071FEE70F92251
:0F103700D2A1121046C2A17F0512104AC2A022F8
:0C105200C2A1121046D2A17F0502104A74
:100FE500C2A0A20492A17F0512104A121046C2A007
:070FF500D2A17F0502104AA2
:0A0FB200C2AF1210377FA0120E35F7
:100FBC00121046A2A19205C2A07F0512104AA205EA
:010FCC002202
:020E3500AD0707
:100E3700E4FCECC39408748094805024C2A07F051E
:100E470012104AED30E704D2A18002C2A17F051239
:100E5700104AD2A0ED25E0FD7F0512104A0C80D282
:020E6700C2A027
:010E69002266
:100F1200E4FCECC39408748094805017121046EDE0
:100F220025E0FD30A103430501C2A07F0512104A4E
:050F32000C80DFAF059B
:010F37002297
:020E9C00AB07A2
:100E9E00120FB2AF03120E35120FBC1210377FA114
:100EAE00120E35120FBC120F12AD07120FBC12101C
:050EBE0052D2AFAF05A8
:010EC300220C
:100F7900AB05AA07120FB2AF02120E35120FBCAFA2
:0D0F890003120E35120FBC121052D2AF220F
:020E6A00AB07D4
:100E6C00C2AF1210377F90120E35120FBCAF0312A7
:100E7C000E35120FBC1210377F91120E35120FBCAB
:0F0E8C00120F12AD07120FBC121052D2AFAF05EA
:010E9B002234
:100FCD00AB071210377F90120E35120FBCAF031204
:080FDD000E35120FBC02105288
:100CC600E5A0541F4480F5A0EF14B40800504490EA
:100CD6000CE375F003A4C58325F0C58373020CFBF2
:100CE600020CFF020D03020D07020D0B020D0F028F
:100CF6000D13020D17D280801AD2818016D28280FF
:100D060012D283800ED284800AD2858006D2868053
:070D160002D28753A01F2247
:100D1D00E5A0541F4480F5A0EF14B4080050449092
:100D2D000D3A75F003A4C58325F0C58373020D52EA
:100D3D00020D56020D5A020D5E020D62020D660283
:100D4D000D6A020D6EC280801AC2818016C2828029
:100D5D0012C283800EC284800AC2858006C286803C
:070D6D0002C28753A01F2200
:1005E200EC4D6011E8497017ED33EC3304600DE413
:1005F200FCFFFEFD22E933E8330470F802083212F0
:1006020007FD58046009E4CC2481500628500902F1
:10061200083C284003020839C0E0EB4A7044B98024
:1006220006D0E0FB020828EF4E701CBD8008EBFFED
:10063200EAFEE9FD80EBE98DF0A4FEE5F00206CBCF
:10064200E9CDF9EAFEEBFFEF89F0A4FCE5F0CE89F3
:10065200F0A42EFFE435F0CD89F0A42DFEE435F0B0
:100662008067EF4E7005BD80D780C3EF8BF0A4ACDE
:10067200F0EE8BF0A42CFCE435F0F8EF8AF0A42C19
:10068200E5F038FCE433CB8DF0A42CFCE5F03BF82C
:10069200EE8AF0A42CFCE5F038F8E433CF89F0A41C
:1006A2002CFCE5F038CF3400CE89F0A42FFFE5F022
:1006B2003EFEE433C98DF0A42EFEE5F039CD8AF07A
:1006C200A42FFFE5F03EFEE43DFD33D0E0FB5007F2
:1006D2000BBB000F02083CEC2CFCEF33FFEE33FEA9
:0606E200ED33FD020814D7
:1006E80002083CEC5D046005E85904700302083216
:1006F8001207FD580460F6EC4860F2EC7004FDFE49
:10070800FF22C860DB2481C85009C39860025006E4
:100718000208399850CAF582E9294B4A7005AB821C
:1007280002082875F0007C1A7880C3EF9BEE9AEDDA
:1007380099400DC3EF9BFFEE9AFEED99FDE842F05C
:10074800DC23ACF0D0E0FFD0E0FED0E0FDAB8220AF
:10075800E7101BEB60BAEC2CFCEF33FFEE33FEED39
:1007680033FD020814E803F830E705C0F075F0001F
:10077800EF2FFFEE33FEED33FD40B830E7C280AA1D
:1007880075F020800E75F010800575F0087D007EEC
:10079800007F003392D530D5031208BEEC334010E9
:1007A800EF33FFEE33FEED33FDEC33FCD5F0ED22F5
:0E07B800E5F0247EA2D513CC92E7CDCEFF2231
:1007C600EDD2E7CD33EC3392D524814006E4FFFE2B
:1007D600FDFC22FCE4CFCECDCC24E0501174FF808A
:1007E600EDC3CC13CCCD13CDCE13CECF13CF047027
:0707F600F030D5DE0208BE61
:1007FD00E9D2E7C933E833F892D5EDD2E7CD33EC42
:07080D0033FC5002B2D522BA
:10081400EC30E7100FBF000C0EBE00080DBD000445
:100824000BEB6014A2D5EB13FCED92E7FD2274FFF1
:10083400FCFDFEFF22E480F8A2D574FF13FC7D804A
:03084400E480EF5E
:03000000020B757B
:0C0B7500787FE4F6D8FD75815F020BBCB0
:10084700C2D530F707B2D563F0FF05F030E70CB239
:10085700D5F4048463F0FF05F080018430D502F4F9
:02086700042269
:10086900BC000BBE0029EF8DF084FFADF022E4CC73
:10087900F875F008EF2FFFEE33FEEC33FCEE9DEC3C
:10088900984005FCEE9DFE0FD5F0E9E4CEFD22ED82
:10089900F8F5F0EE8420D21CFEADF075F008EF2FCC
:1008A900FFED33FD4007985006D5F0F222C398FDBD
:0508B9000FD5F0EA225A
:0E08BE00C3E49FFFE49EFEE49DFDE49CFC224B
:1008CC00D083D082F8E4937012740193700DA3A3BB
:1008DC0093F8740193F5828883E4737402936860CF
:0608EC00EFA3A3A380DFCF
:100B810002000EE493A3F8E493A34003F68001F27C
:100B910008DFF48029E493A3F85407240CC8C33375
:100BA100C4540F4420C8834004F456800146F6DF44
:100BB100E4800B0102040810204080900C67E47E61
:100BC100019360BCA3FF543F30E509541FFEE49339
:100BD100A360010ECF54C025E060A840B8E493A300
:100BE100FAE493A3F8E493A3C8C582C8CAC583CA2B
:100BF100F0A3C8C582C8CAC583CADFE9DEE780BEE3
:010CC500002E
:00000001FF
