:100BDA003F065B4F666D7D077F6F01020408102098
:020BEA00408049
:10094100C101085F3900000000000000C100084F2C
:100951003E0000000000000002410000082B710071
:10096100000000000000013E010167000144000297
:100971004A0000017100014900024D0000024700D8
:100981000001680008727639000000000000086963
:10099100763E00000000000008357671000000007E
:1009A100000008577300000000000000013300013F
:1009B1003D01022100000223000002250000022760
:0609C10000000229000005
:1009C800E5A0541F4480F5A07580FF53A01FE5A043
:1009D800541F44A0F5A0C284C28653A01FE5A054AA
:1009E8001F44C0F5A0E4F58053A01FE5A0541F44A0
:0A09F800E0F5A07580FF53A01F2258
:100BEC00438E80438904758AFF758CFFD28CD2A901
:010BFC0022D6
:100BC500438E4053890F758BCD758DD4C28FD28ED0
:050BD500D2ABD2AF22FB
:080C30007F367EC7DEFEDFFC0B
:010C38002299
:0B0C0C00E5B0F4FF65345FF5438F3462
:010C170022BA
:1007F400AF437E00EF64017011F53EF5680533E503
:100804003364027005F533753E01EF64024E7029BE
:10081400AF33FEEF700DF53E0568E56864047003C0
:10082400756801EF64014E7010053DD3E53D9432C7
:10083400748094804003753D01E54364047060ADA9
:10084400497F01120B60120C30AD717F02120B60F4
:10085400120C30E549F54DE571F54EAD4C7F0312B0
:100864000B60120C30AC4CE41201CEE4FBFA797F3D
:100874007843120127E4FBFA79FA784312001E1236
:1008840002028E478F48AD447F04120B60120C3075
:10089400AD677F05120B60E544F54AE567F54BE566
:1008A400436408700B053EE53E64047003753E0125
:0108B4002221
:1002F8001209C8120BEC120BC57F01120AA18F4913
:10030800120C307F02120AA18F71120C30E549F5E8
:100318004DE571F54E7F04120AA18F44120C307F0F
:1003280005120AA18F67120C30E544F54AE567F516
:100338004B7F03120AA1AC07E41201CEE4FBFA7961
:100348007F7843120127E4FBFA79FA784312001EFA
:100358001202028E478F482000030204457F0312D1
:100368000A6F8F4CAC4CE41201CEE4FBFA797F782B
:1003780043120127E4FBFA79FA784312001E1202AD
:10038800028E3F8F407C007D6412029574DA2FF54F
:1003980082740B3EF583E4934480F555AE3FAF403D
:1003A8007C007D0A1202957C007D0A12029574DA9F
:1003B8002DF582740B3CF583E493F556120A02126C
:1003C80002028E458F467C037DE812029574DA2F6F
:1003D800F582740B3EF583E493F563AE45AF467C36
:1003E800007D641202957C007D0A12029574DA2D54
:1003F800F582740B3CF583E4934480F564AE45AF15
:10040800467C007D0A1202957C007D0A12029574D2
:10041800DA2DF582740B3CF583E493F565AE45AFB0
:10042800467C007D0A12029574DA2DF582740B3C25
:10043800F583E493F566854671E545F5493001088D
:10044800C201120C0C1207F4E56864017074AE4D19
:10045800AF4E7C037DE812029574DA2FF582740B97
:100468003EF583E493F576AE4DAF4E7C007D641285
:1004780002957C007D0A12029574DA2DF582740BC0
:100488003CF583E4934480F577AE4DAF4E7C007D18
:100498000A1202957C007D0A12029574DA2DF58203
:1004A800740B3CF583E493F578AE4DAF4E7C007D3C
:1004B8000A12029574DA2DF582740B3CF583E493E5
:1004C800F579E568FB7A006402703AAE47AF48FCFC
:1004D8007D6412029574DA2FF582740B3EF583E47D
:1004E800934480F56FAE47AF487C007D0A120295B1
:1004F8007C007D0A12029574DA2DF582740B3CF5A6
:1005080083E493F570EB64034A60030205A8AE4ADE
:10051800AF4B7C277D1012029574DA2FF582740B8D
:100528003EF583E493F538AE4AAF4B7C037DE81281
:1005380002957C007D0A12029574DA2DF582740BFF
:100548003CF583E493F539AE4AAF4B7C007D6412E9
:1005580002957C007D0A12029574DA2DF582740BDF
:100568003CF583E493F53AAE4AAF4B7C007D0A1222
:1005780002957C007D0A12029574DA2DF582740BBF
:100588003CF583E493F53BAE4AAF4B7C007D0A1201
:10059800029574DA2DF582740B3CF583E493F53CEF
:1005A800E5336401600302035FE53D75F00A84905A
:1005B8000BDA934480F55DE53D75F00A84E5F09328
:0505C800F55E02035F77
:03000B0002000EE2
:0D000E00C0E00542E54270020541D0E0323D
:03001B000205CD0E
:1005CD00C0E0C0F0C083C082C0D075D000C000C0F4
:0705DD0004C005C006C007C1
:1005E4000522E522700205210524E5247002052375
:1005F4000528E52870020527052AE52A7002052941
:10060400E528649645277006F527F528D200E524E9
:10061400640A45237006D201F523F524E522640219
:1006240045216003020726F521F522E5A0541F4465
:10063400C0F5A075800053A01FAF3E7E00EF64019B
:100644007014E5A0541F44E0F5A0745F2526F8E675
:10065400F4F58053A01FEF64024E7014E5A0541FFC
:1006640044E0F5A0744F2526F8E6F4F58053A01F66
:10067400E53E64037014E5A0541F44E0F5A0742B18
:100684002526F8E6F4F58053A01FAF687E00EF64DA
:10069400017014E5A0541F44E0F5A074722526F8F7
:1006A400E6F4F58053A01FEF64024E7014E5A054E5
:1006B4001F44E0F5A074692526F8E6F4F58053A0FC
:1006C4001FE56864037014E5A0541F44E0F5A074AA
:1006D400352526F8E6F4F58053A01FE53364017050
:1006E40014E5A0541F44E0F5A074572526F8E6F459
:1006F400F58053A01FE5A0541F44C0F5A074E42561
:1007040026F582740B3525F583E493F58053A01FF9
:100714000526E52670020525640845257004F5259F
:10072400F526E52A64E87004E529640360030207FA
:10073400DFF529F52AC2A9C28C854267E541F54453
:10074400FEAF427C277D1012029574DA2FF5827475
:100754000B3EF583E493F52EAE41AF427C037DE876
:100764001202957C007D0A12029574DA2DF58274CA
:100774000B3CF583E493F52FAE41AF427C007D64DE
:100784001202957C007D0A12029574DA2DF58274AA
:100794000B3CF583E493F530AE41AF427C007D0A17
:1007A4001202957C007D0A12029574DA2DF582748A
:1007B4000B3CF583E493F531AE41AF427C007D0AF6
:1007C40012029574DA2DF582740B3CF583E493F5EB
:0B07D40032754100754200D2A9D28CA2
:1007DF00D007D006D005D004D000D0D0D082D0839F
:0507EF00D0F0D0E03263
:040BAF007F057E0040
:100BB3007C007D0C120283EF1FAC0670011E4C708B
:020BC300F62218
:020AC900AB0779
:100ACB00E4FAEAC39408748094805012C294EB1336
:100ADB009294120BAFD294EBC313FB0A80E47F0505
:050AEB007E00020BB3C8
:100B3D00E4FAEAC39408748094805014C294EBC311
:100B4D0013FBD294309403430380120BAF0A80E25F
:020B5D00AF03E4
:010B5F002273
:100AF000C203D2947F0C7E00120BB3C2947F507E4F
:100B000000120BB3D2947F0A7E00120BB3A2949210
:060B100003120BAFA2036B
:010B160022BC
:100A0200120AF07FCC120AC97F44120AC9120AF0F4
:100A12007FCC120AC97FBE120AC9120B3DA9071266
:100A22000B3DEFFEE9FFE4AD07AC061201C9E4FBA2
:080A3200FA79C8784002001EA9
:040C1800D2A07F05E2
:080C1C0000AE071FEE70F92283
:0F0BFD00D2A1120C18C2A17F05120C1CC2A0229B
:0C0C2400C2A1120C18D2A17F05020C1C0A
:100B9800C2A0A20292A17F05120C1C120C18C2A0BE
:070BA800D2A17F05020C1C25
:0A0B7D00C2AF120BFD7FA0120A3A6E
:100B8700120C18A2A19203C2A07F05120C1CA2038B
:010B9700223B
:020A3A00AD0706
:100A3C00E4FCECC39408748094805024C2A07F051D
:100A4C00120C1CED30E704D2A18002C2A17F05126A
:100A5C000C1CD2A0ED25E0FD7F05120C1C0C80D2E5
:020A6C00C2A026
:010A6E002265
:100B1700E4FCECC39408748094805017120C18ED11
:100B270025E0FD30A103430501C2A07F05120C1C7F
:050B37000C80DFAF059A
:010B3C002296
:020A6F00AB07D3
:100A7100C2AF120BFD7F90120A3A120B87AF03121D
:100A81000A3A120B87120BFD7F91120A3A120B8759
:0F0A9100120B17AD07120B87120C24D2AFAF0553
:010AA0002233
:100B6000AB05AA07120B7DAF02120A3A120B87AF30
:0D0B700003120A3A120B87120C24D2AF2296
:020AA100AB07A1
:100AA300120B7DAF03120A3A120B87120BFD7FA1C3
:100AB300120A3A120B87120B17AD07120B87120C8F
:050AC30024D2AFAF05D5
:010AC800220B
:10001E00EC4D6011E8497017ED33EC3304600DE4DC
:10002E00FCFFFEFD22E933E8330470F802026E1283
:10003E00023958046009E4CC248150062850090284
:10004E000278284003020275C0E0EB4A7044B98082
:10005E0006D0E0FB020264EF4E701CBD8008EBFF81
:10006E00EAFEE9FD80EBE98DF0A4FEE5F002010762
:10007E00E9CDF9EAFEEBFFEF89F0A4FCE5F0CE89BD
:10008E00F0A42EFFE435F0CD89F0A42DFEE435F07A
:10009E008067EF4E7005BD80D780C3EF8BF0A4ACA8
:1000AE00F0EE8BF0A42CFCE435F0F8EF8AF0A42CE3
:1000BE00E5F038FCE433CB8DF0A42CFCE5F03BF8F6
:1000CE00EE8AF0A42CFCE5F038F8E433CF89F0A4E6
:1000DE002CFCE5F038CF3400CE89F0A42FFFE5F0EC
:1000EE003EFEE433C98DF0A42EFEE5F039CD8AF044
:1000FE00A42FFFE5F03EFEE43DFD33D0E0FB5007BC
:10010E000BBB000F020278EC2CFCEF33FFEE33FE3C
:06011E00ED33FD0202506A
:10012400020278EC5D046005E85904700302026E73
:10013400120239580460F6EC4860F2EC7004FDFEDB
:10014400FF22C860DB2481C85009C39860025006AE
:100154000202759850CAF582E9294B4A7005AB82B0
:1001640002026475F0007C1A7880C3EF9BEE9AED6E
:1001740099400DC3EF9BFFEE9AFEED99FDE842F026
:10018400DC23ACF0D0E0FFD0E0FED0E0FDAB822079
:10019400E7101BEB60BAEC2CFCEF33FFEE33FEED03
:1001A40033FD020250E803F830E705C0F075F000B3
:1001B400EF2FFFEE33FEED33FD40B830E7C280AAE7
:1001C40075F020800E75F010800575F0087D007EB6
:1001D400007F003392D530D5031202EAEC3340108D
:1001E400EF33FFEE33FEED33FDEC33FCD5F0ED22BF
:0E01F400E5F0247EA2D513CC92E7CDCEFF22FB
:10020200EDD2E7CD33EC3392D524814006E4FFFEF4
:10021200FDFC22FCE4CFCECDCC24E0501174FF8053
:10022200EDC3CC13CCCD13CDCE13CECF13CF0470F0
:07023200F030D5DE0202EA04
:10023900E9D2E7C933E833F892D5EDD2E7CD33EC0B
:0702490033FC5002B2D52284
:10025000EC30E7100FBF000C0EBE00080DBD00040F
:100260000BEB6014A2D5EB13FCED92E7FD2274FFBB
:10027000FCFDFEFF22E480F8A2D574FF13FC7D8014
:03028000E480EF28
:030000000208B53E
:0C08B500787FE4F6D8FD7581790208FC1C
:10028300EF8DF0A4A8F0CF8CF0A428CE8DF0A42E8F
:02029300FE2249
:10029500BC000BBE0029EF8DF084FFADF022E4CC4D
:1002A500F875F008EF2FFFEE33FEEC33FCEE9DEC16
:1002B500984005FCEE9DFE0FD5F0E9E4CEFD22ED5C
:1002C500F8F5F0EE8420D21CFEADF075F008EF2FA6
:1002D500FFED33FD4007985006D5F0F222C398FD97
:0502E5000FD5F0EA2234
:0E02EA00C3E49FFFE49EFEE49DFDE49CFC2225
:1008C1000202F8E493A3F8E493A34003F68001F253
:1008D10008DFF48029E493A3F85407240CC8C33338
:1008E100C4540F4420C8834004F456800146F6DF07
:1008F100E4800B0102040810204080900941E47E4D
:10090100019360BCA3FF543F30E509541FFEE493FB
:10091100A360010ECF54C025E060A840B8E493A3C2
:10092100FAE493A3F8E493A3C8C582C8CAC583CAED
:10093100F0A3C8C582C8CAC583CADFE9DEE780BEA5
:0109C700002F
:00000001FF
