:1007B2003F065B4F666D7D077F6F010204081020C4
:0207C200408075
:1006B900014000012300083540400000000000000F
:1006C900014163013D32C182C103022400000226B7
:0606D900000002280000F1
:1005F00053A01F7580FF43A0807580FF53A01F5339
:10060000A01FE4F58043A0A0F58053A01F53A01FB6
:10061000F58043A0C0F58053A01F53A01F7580FF35
:0A06200043A0E07580FF53A01F22E5
:10078900438E805389F0758ACD758CD4C28DD28CF5
:05079900D2A9D2AF223D
:10035100E4FFE5B0540FFEE54014602B14604F1428
:10036100700302040524036003020413E4F523EE81
:10037100FD3395E0FCED640F4C7003020413E4F5CA
:1003810021F52275400122EEFD3395E0FCED640F6D
:100391004C60170522E52270020521C39403E52173
:1003A10064809480406C75400222E4F54022EEFDA9
:1003B1003395E0FCED640F4C7007AF23F523F54056
:1003C10022ED640E4C7003752301ED640D4C700336
:1003D100752302ED640B4C7003752303ED64074C28
:1003E10070037523040522E52270020521C394647C
:1003F100E52164809480401AE5234480FFE4F523DD
:1004010075400322EEFD3395E0FCED640F4C700264
:02041100F540B4
:0104130022C6
:10000E001205F07F011206918F3D7B327D1E7F0817
:10001E0012054D120789C2AF7F811205B38F347F4F
:10002E00831205B38F3E7F851205B38F3FD2AFE5A6
:10003E003FC4540F9007B293F52AE53F540F93F542
:10004E002B752C40E53EC4540F93F52DE53E540F11
:10005E0093F52EE4F52FC2AF7F0312065FAC07E4D3
:10006E0012026C7BE17A7A792478401201C5120271
:10007E00A08F41D2AFE54175F00A849007B293F597
:10008E0030E54175F00A84E5F093F531E53D75F004
:10009E000A8493F53BE53D75F00A84E5F093F53C53
:1000AE00AF337E00EF640170277580FDE5A0541F0D
:1000BE004480F5A07580FD53A01FE541C3953D50CA
:1000CE000B300204D2018028C2018024C20180209C
:1000DE007580FEE5A0541F4480F5A07580FE53A0E8
:1000EE001FC201E541C3953D5004D2008002C200FB
:1000FE00E53224FE601614602B1460392403704719
:10010E000533E5336402703CF5338038EF64014EFD
:10011E007004B202800CB203200307AD3D7F0112C2
:10012E0007068020E53364017004D2008005300399
:10013E0002053D800FE53364017004C20080053076
:10014E000302153DE4F532200016200113C284C2CD
:10015E0086E5A0541F44A0F5A0C284C28653A01FFA
:10016E00300016200113D284C286E5A0541F44A08D
:10017E00F5A0D284C28653A01F200016300113C2F0
:10018E0084D286E5A0541F44A0F5A0C284D2865323
:10019E00A01F200003020024200103020024D284A9
:1001AE00D286E5A0541F44A0F5A0D284D28653A0D7
:0401BE001F020024F8
:03000B00020414D8
:10041400C0E0C083C082C0D075D000C000C004C09A
:0504240005C006C00741
:100429000525E525700205240527E527700205261F
:1004390064084526700B1203518F32752600752703
:1004490000E52564014524705CF524F525E5A054F3
:100459001F44C0F5A075800053A01FE5A0541F4498
:10046900E0300306F5A074358004F5A0742A252927
:10047900F8E6F4F58053A01FE5A0541F44C0F5A089
:1004890074BC2529F58274073528F583E493F58032
:1004990053A01F0529E5297002052864084528701D
:0504A90004F528F5290F
:1004AE00D007D006D005D004D000D0D0D082D083D3
:0304BE00D0E03259
:10072300E4FEEEC3940874809480500FC297EF13D5
:0B07330092A3EFC313FFD2970E80E7E4
:01073E002298
:10079E00C29300C29700D29300120723AF0512072F
:0407AE0023C29322AD
:1005B300E4FDC29300C29700D29300120723E4FF25
:1005C300EFC39408748094805011C297EDC313FD58
:1005D30030A303430580D2970F80E5C29300C297EF
:0C05E30000D29700C2A300D2A300AF0515
:0105EF0022E9
:10054D00AC07AA05E4FD7F8E12079EEB75F00A122B
:10055D000321C454F0FFEB75F00A120321AEF0EF46
:10056D002EFD7F8012079EEA75F00A120321C454F6
:10057D00F0FFEA75F00A120321AEF0EF2EFD7F8237
:10058D0012079EEC75F00A120321C454F0FFEC75AE
:10059D00F00A120321AEF0EF2EFD7F8412079E7D2F
:0605AD00807F8E02079E14
:0407D300D2A07F052C
:0807D70000AE071FEE70F922CD
:0F07C400D2A11207D3C2A17F051207D7C2A0226C
:0C07DF00C2A11207D3D2A17F050207D7E8
:10077200C2A0A20492A17F051207D71207D3C2A07A
:07078200D2A17F050207D799
:0A073F00C2AF1207C47FA012062A01
:100749001207D3A2A19205C2A07F051207D7A2055D
:01075900227D
:02062A00AD071A
:10062C00E4FCECC39408748094805024C2A07F0531
:10063C001207D7ED30E704D2A18002C2A17F0512C8
:10064C0007D7D2A0ED25E0FD7F051207D70C80D28D
:02065C00C2A03A
:01065E002279
:1006E000E4FCECC394087480948050171207D3ED97
:1006F00025E0FD30A103430501C2A07F051207D705
:050700000C80DFAF05D5
:0107050022D1
:02069100AB07B5
:1006930012073FAF0312062A1207491207C47FA1AC
:1006A30012062A1207491206E0AD0712074912077C
:0506B300DFD2AFAF052E
:0106B800221F
:10070600AB05AA0712073FAF0212062A120749AF26
:0D0716000312062A1207491207DFD2AF2294
:02065F00AB07E7
:10066100C2AF1207C47F9012062A120749AF0312C4
:10067100062A1207491207C47F9112062A12074956
:0F0681001206E0AD071207491207DFD2AFAF052F
:010690002247
:10075A00AB071207C47F9012062A120749AF031289
:08076A00062A1207490207DF0D
:1001C200020316EC5D046005E85904700302030C97
:1001D2001202D7580460F6EC4860F2EC7004FDFE9F
:1001E200FF22C860DB2481C85009C3986002500610
:1001F2000203139850CAF582E9294B4A7005AB8273
:1002020002030275F0007C1A7880C3EF9BEE9AED30
:1002120099400DC3EF9BFFEE9AFEED99FDE842F087
:10022200DC23ACF0D0E0FFD0E0FED0E0FDAB8220DA
:10023200E7101BEB60BAEC2CFCEF33FFEE33FEED64
:1002420033FD0202EEE803F830E705C0F075F00076
:10025200EF2FFFEE33FEED33FD40B830E7C280AA48
:1002620075F020800E75F010800575F0087D007E17
:10027200007F003392D530D503120343EC33401094
:10028200EF33FFEE33FEED33FDEC33FCD5F0ED2220
:0E029200E5F0247EA2D513CC92E7CDCEFF225C
:1002A000EDD2E7CD33EC3392D524814006E4FFFE56
:1002B000FDFC22FCE4CFCECDCC24E0501174FF80B5
:1002C000EDC3CC13CCCD13CDCE13CECF13CF047052
:0702D000F030D5DE0203430C
:1002D700E9D2E7C933E833F892D5EDD2E7CD33EC6D
:0702E70033FC5002B2D522E6
:1002EE00EC30E7100FBF000C0EBE00080DBD000471
:1002FE000BEB6014A2D5EB13FCED92E7FD2274FF1D
:10030E00FCFDFEFF22E480F8A2D574FF13FC7D8075
:03031E00E480EF89
:030000000204C136
:0C04C100787FE4F6D8FD75814102050843
:10032100C2D530F707B2D563F0FF05F030E70CB264
:10033100D5F4048463F0FF05F080018430D502F424
:02034100042294
:0E034300C3E49FFFE49EFEE49DFDE49CFC22CB
:1004CD0002000EE493A3F8E493A34003F68001F237
:1004DD0008DFF48029E493A3F85407240CC8C33330
:1004ED00C4540F4420C8834004F456800146F6DFFF
:1004FD00E4800B01020408102040809006B9E47ED0
:10050D00019360BCA3FF543F30E509541FFEE493F3
:10051D00A360010ECF54C025E060A840B8E493A3BA
:10052D00FAE493A3F8E493A3C8C582C8CAC583CAE5
:10053D00F0A3C8C582C8CAC583CADFE9DEE780BE9D
:0106DF00001A
:00000001FF
