:100765003F065B4F666D7D077F6F01020408102011
:020775004080C2
:10069100012100012400014101013800C180014311
:1006A10000083040664000000000390225000002C9
:0F06B10027000002290000022B0000022D00008C
:10061F00E5A0541F4480F5A07580FF53A01FE5A0EF
:10062F00541F44A0F5A0C284C28653A01FE5A05456
:10063F001F44C0F5A0E4F58053A01FE5A0541F444C
:0A064F00E0F5A07580FF53A01F2204
:10075000438E805389F0758AAE758CFBC28DD28C26
:05076000D2A9D2AF2276
:1004D000E4FFE5B0540FFEE52114602B14604F14C7
:1004E000700302058424036003020592E4F524EE00
:1004F000FD3395E0FCED640F4C7003020592E4F5CA
:1005000022F52375210122EEFD3395E0FCED640F09
:100510004C60170523E52370020522C39403E522EE
:1005200064809480406C75210222E4F52122EEFD66
:100530003395E0FCED640F4C7007AF24F524F521F2
:1005400022ED640E4C7003752401ED640D4C7003B4
:10055000752402ED640B4C7003752403ED64074CA5
:1005600070037524040523E52370020522C3942C2F
:10057000E52264809481401AE5244480FFE4F52458
:1005800075210322EEFD3395E0FCED640F4C700203
:02059000F52153
:010592002246
:1003940012061F120750753940E54190076593F521
:1003A4003A753B40E4F53C93F53DAE44AF457C00E3
:1003B4007D641201D374652FF58274073EF583E4DE
:1003C40093F53EAE44AF457C007D0A1201D37C0018
:1003D4007D0A1201D374652DF58274073CF583E41C
:1003E40093F53FAE44AF457C007D0A1201D374659A
:1003F4002DF58274073CF583E493F540E543601FD3
:100404001206591201528F42E54275F00A84900790
:100414006593F535E54275F00A84E5F093F536E524
:100424004545447004C2008002D200E52F24FE60DA
:100434001614601C1460422403704C0543E54364A5
:10044400027034F5438030E4F544F545C20080344D
:100454000538E53864037006F538F544F545AF38DA
:100464007E00EF64017005F54475453CEF64024E6F
:100474007005F544754578800B0541E541640470C9
:1004840003754101752FFFAF417E00EF6401700ECB
:10049400E5A0541F4480F5A07580FE53A01FEF64AF
:1004A400024E700EE5A0541F4480F5A07580FD53E4
:1004B400A01FE5416403600302039AE5A0541F44AE
:0C04C40080F5A07580FB53A01F02039A76
:03000B00020236B8
:10023600C0E0C083C082C0D075D000C000C004C07A
:0502460005C006C00721
:10024B000526E526700205250528E52870020527F9
:10025B00052CE52C7002052B052EE52E7002052DC5
:10026B00E52864644527700B1204D08F2F75270087
:10027B00752800E526641445257068F525F526E5F7
:10028B00A0541F44C0F5A075800053A01FE5436424
:10029B0001700CE5A0541F44E0F5A07430800AE512
:1002AB00A0541F44E0F5A07439252AF8E6F4F58034
:1002BB0053A01FE5A0541F44C0F5A0746F252AF569
:1002CB008274073529F583E493F58053A01F75805D
:1002DB00FF052AE52A70020529640845297004F5F3
:1002EB0029F52AE52EB4101EE52DB42719752D001E
:1002FB00752E00D3E5459400E54494004008E54590
:10030B0015457002154430005FAF417E00EF64016C
:10031B007018E52C6408452B7002D2B4E52C640AE6
:10032B00452B7006C2B4F52BF52CEF64024E7018FA
:10033B00E52C6407452B7002D2B4E52C640A452BDF
:10034B007006C2B4F52BF52CEF64034E7028E52C28
:10035B006403452B7002D2B4E52C640A452B70164E
:10036B00C2B4F52BF52C800EC2B4752B00752C0086
:06037B00752D00752E0037
:10038100D007D006D005D004D000D0D0D082D08301
:03039100D0E03287
:040732007F057E00C1
:10073600EF1FAA0670011E4A600FE4FDEDC3940C7C
:090746007480948050EA0D80F3E8
:01074F002287
:0206C100A90787
:1006C300E4FBEBC39408748094805012C294E91342
:1006D3009294120732D294E9C313F90B80E47F0595
:0506E3007E0002073655
:10070F00E4FBEBC39408748094805014C294ECC340
:10071F0013FCD2943094034304801207320B80E20F
:02072F00AF0415
:0107310022A5
:1006E800C201D2947F0C7E00120736C2947F507EDE
:1006F80000120736D2947F0A7E00120736A294921F
:0607080001120732A201FC
:01070E0022C8
:100659001206E87FCC1206C17F441206C11206E8D1
:100669007FCC1206C17FBE1206C112070FA907125D
:10067900070FEFFEE9FFE4AD07AC06120119E4FB31
:08068900FA7980783D02000EB1
:10000E00EC4D6011E8497017ED33EC3304600DE4EC
:10001E00FCFFFEFD22E933E8330470F80201BE1244
:10002E00018958046009E4CC248150062850090245
:10003E0001C82840030201C5C0E0EB4A7044B980F4
:10004E0006D0E0FB0201B4EF4E701CBD8008EBFF42
:10005E00EAFEE9FD80EBE98DF0A4FEE5F00200F783
:10006E00E9CDF9EAFEEBFFEF89F0A4FCE5F0CE89CD
:10007E00F0A42EFFE435F0CD89F0A42DFEE435F08A
:10008E008067EF4E7005BD80D780C3EF8BF0A4ACB8
:10009E00F0EE8BF0A42CFCE435F0F8EF8AF0A42CF3
:1000AE00E5F038FCE433CB8DF0A42CFCE5F03BF806
:1000BE00EE8AF0A42CFCE5F038F8E433CF89F0A4F6
:1000CE002CFCE5F038CF3400CE89F0A42FFFE5F0FC
:1000DE003EFEE433C98DF0A42EFEE5F039CD8AF054
:1000EE00A42FFFE5F03EFEE43DFD33D0E0FB5007CC
:1000FE000BBB000F0201C8EC2CFCEF33FFEE33FEFE
:06010E00ED33FD0201A02B
:1001140075F020800E75F010800575F0087D007E66
:10012400007F003392D530D503120228EC334010FF
:10013400EF33FFEE33FEED33FDEC33FCD5F0ED226F
:0E014400E5F0247EA2D513CC92E7CDCEFF22AB
:10015200EDD2E7CD33EC3392D524814006E4FFFEA5
:10016200FDFC22FCE4CFCECDCC24E0501174FF8004
:10017200EDC3CC13CCCD13CDCE13CECF13CF0470A1
:07018200F030D5DE02022877
:10018900E9D2E7C933E833F892D5EDD2E7CD33ECBC
:0701990033FC5002B2D52235
:1001A000EC30E7100FBF000C0EBE00080DBD0004C0
:1001B0000BEB6014A2D5EB13FCED92E7FD2274FF6C
:1001C000FCFDFEFF22E480F8A2D574FF13FC7D80C5
:0301D000E480EFD9
:0300000002059363
:0C059300787FE4F6D8FD7581450205DA9A
:1001D300BC000BBE0029EF8DF084FFADF022E4CC10
:1001E300F875F008EF2FFFEE33FEEC33FCEE9DECD9
:1001F300984005FCEE9DFE0FD5F0E9E4CEFD22ED1F
:10020300F8F5F0EE8420D21CFEADF075F008EF2F68
:10021300FFED33FD4007985006D5F0F222C398FD59
:050223000FD5F0EA22F6
:0E022800C3E49FFFE49EFEE49DFDE49CFC22E7
:10059F00020394E493A3F8E493A34003F68001F2DB
:1005AF0008DFF48029E493A3F85407240CC8C3335D
:1005BF00C4540F4420C8834004F456800146F6DF2C
:1005CF00E4800B0102040810204080900691E47E25
:1005DF00019360BCA3FF543F30E509541FFEE49321
:1005EF00A360010ECF54C025E060A840B8E493A3E8
:1005FF00FAE493A3F8E493A3C8C582C8CAC583CA13
:10060F00F0A3C8C582C8CAC583CADFE9DEE780BECA
:0106C0000039
:00000001FF
