:10088F003F065B4F666D7D077F6F010204081020E6
:02089F00408097
:10081600012100013A00013F1E013E14013C000186
:100826003D000222000002240000022600000228E9
:020836000000C0
:10078E0053A01F7580FF43A0807580FF53A01F5399
:10079E00A01FE4F58043A0A0F58053A01F53A01F17
:1007AE00F58043A0C0F58053A01F53A01F7580FF96
:0A07BE0043A0E07580FF53A01F2246
:10087A00438E805389F0758ACD758CD4C28DD28C03
:05088A00D2A9D2AF224B
:0E08A10000007F167E037DE3DDFEDEFCDFFA45
:0108AF002226
:10058C00E4F508C2B0C2B1C2B2C2B3D2B4D2B5D2D1
:10059C00C2D2C420C403750A7020C203750AB020ED
:1005AC00B503750AD020B403750AE030B40C30B52D
:1005BC000930C20630C403750AF0D2B0D2B1D2B23F
:1005CC00D2B3C2B4C2B5C2C2C2C420B003750B0E42
:1005DC0020B103750B0D20B203750B0B20B3037503
:1005EC000B0730B00C30B10930B20630B303750BC9
:1005FC000FE50A450BF509E52114601B1470030285
:10060C0006B9240260030206C0E509F47003020671
:10061C00C07521010206C0E509F47005F52102063A
:10062C00C0E50912040B066677066B7B06707D0627
:10063C00757E067AB7067FBB0684BD0689BE068E1C
:10064C00D70693DB0698DD069DDE06A2E706A7EB30
:10065C0006ACED06B1EE000006B4750804804975D1
:10066C0008058044750806803F750807803A7508B0
:10067C00088035750809803075080A802B75080BC1
:10068C00802675080C802175080D801C75080E805D
:10069C001775080F8012750810800D7508118008E9
:1006AC0075081280037508137521028007E509F49B
:0606BC007002F521AF08F9
:0106C2002215
:10000E0012078E12087A1208A112074F12037C8F64
:10001E003B752A40E54890088F93F52B752C40E4EC
:10002E00F52DF52E752F40E53B75F00A8493F530CE
:10003E00E53B75F00A84E5F093F53175324075377E
:10004E0040E53BC3953E5005E4F548800FE53BD3B4
:10005E00953F50057548018003754802E53C6402E2
:10006E007003753C05D3E53C94077480948040037F
:10007E00753C08E53A24FCB40C0040030201FD90E7
:10008E00009B75F003A4C58325F0C583730200BFE2
:10009E000200D80200F102010A02012302016102EC
:1000AE00017A0201920201AA0201B70201CF0201F6
:1000BE00E7053C900898E493FF7432253CF8A607B8
:1000CE007440253CF876090201FD053C900895E444
:1000DE0093FF7432253CF8A6077440253CF876064B
:1000EE000201FD053C900892E493FF7432253CF822
:1000FE00A6077440253CF876030201FD053C9008E6
:10010E008FE493FF7432253CF8A6077440253CF823
:10011E00E4F60201FD053DE53D640260030201FDCA
:10012E00F53DE54175F00AA42542F53FE54675F02B
:10013E000AA42547F53ED3953F4013E5A0541F442E
:10014E0080F5A07580FD53A01FD2010201FDC201F2
:10015E000201FD053C900896E493FF7432253CF8AD
:10016E00A6077440253CF876070201FD053C900871
:10017E0093E493FF7432253CF8A6077440253CF8AF
:10018E007604806B053C900890E493FF7432253C16
:10019E00F8A6077440253CF876018053E4F53CF54B
:1001AE0033F534F538F5398046053C900897E493DD
:1001BE00FF7432253CF8A6077440253CF87608807B
:1001CE002E053C900894E493FF7432253CF8A60764
:1001DE007440253CF876058016053C900891E49312
:1001EE00FF7432253CF8A6077440253CF87602AF22
:1001FE0048EF600464017013C284C286E5A0541FE8
:10020E0044A0F5A0C284C28653A01FE548640260D4
:10021E0003020017D284C286E5A0541F44A0F5A0A5
:0A022E00D284C28653A01F020017FD
:03000B00020431BB
:10043100C0E0C083C082C0D075D000C000C006C07B
:0104410007B3
:100442000523E523700205220525E5257002052412
:100452000529E52970020528E525640E4524700B5F
:1004620012058C8F3A7524007525003001030205B0
:100472000DAF487E00EF702DD3E5299420E5286466
:100482008094834020752800752900B200E5A054AD
:100492001F4480300007F5A07580FE8005F5A07529
:1004A20080FF53A01FEF64014E702DD3E529949075
:1004B200E528648094814020752800752900B200E7
:1004C200E5A0541F4480300007F5A07580FE80052A
:1004D200F5A07580FF53A01FE5486402702DD3E597
:1004E2002994C8E5286480948040207528007529E5
:1004F20000B200E5A0541F4480300007F5A07580CB
:10050200FE8005F5A07580FF53A01FE52364034517
:10051200227068F522F523E5A0541F44C0F5A075AA
:10052200800053A01FE53D6401700CE5A0541F44F8
:10053200E0F5A07432800AE5A0541F44E0F5A074EF
:100542002A2527F8E6F4F58053A01FE5A0541F449E
:10055200C0F5A074992527F58274083526F583E441
:1005620093F58053A01F7580FF0527E527700205CC
:0B05720026640845267004F526F527D6
:0F057D00D007D006D000D0D0D082D083D0E032CB
:04085C007F057E0096
:10086000EF1FAA0670011E4A600FE4FDEDC3940C51
:090870007480948050EA0D80F3BD
:01087900225C
:0207C800A9077F
:1007CA00E4FBEBC39408748094805012C294E9133A
:1007DA00929412085CD294E9C313F90B80E47F0562
:0507EA007E0002086022
:10083900E4FBEBC39408748094805014C294ECC315
:1008490013FCD29430940343048012085C0B80E2B9
:02085900AF04EA
:01085B00227A
:1007EF00C202D2947F0C7E00120860C2947F507EAA
:1007FF0000120860D2947F0A7E00120860A29492C1
:06080F000212085CA202C7
:0108150022C0
:10074F001207EF7FCC1207C87F441207C87FC87EFD
:10075F00001208601207EF7FCC1207C87FBE120786
:10076F00C8120839A907120839EFFEE9FFE4AD07EF
:0F077F00AC06120343E4FBFA7980783D0202389E
:10023800EC4D6011E8497017ED33EC3304600DE4C0
:10024800FCFFFEFD22E933E8330470F80203E812EC
:1002580003B358046009E4CC2481500628500902ED
:1002680003F22840030203EFC0E0EB4A7044B98070
:1002780006D0E0FB0203DEEF4E701CBD8008EBFFEA
:10028800EAFEE9FD80EBE98DF0A4FEE5F00203212A
:10029800E9CDF9EAFEEBFFEF89F0A4FCE5F0CE89A1
:1002A800F0A42EFFE435F0CD89F0A42DFEE435F05E
:1002B8008067EF4E7005BD80D780C3EF8BF0A4AC8C
:1002C800F0EE8BF0A42CFCE435F0F8EF8AF0A42CC7
:1002D800E5F038FCE433CB8DF0A42CFCE5F03BF8DA
:1002E800EE8AF0A42CFCE5F038F8E433CF89F0A4CA
:1002F8002CFCE5F038CF3400CE89F0A42FFFE5F0D0
:100308003EFEE433C98DF0A42EFEE5F039CD8AF027
:10031800A42FFFE5F03EFEE43DFD33D0E0FB50079F
:100328000BBB000F0203F2EC2CFCEF33FFEE33FEA5
:06033800ED33FD0203CAD3
:10033E0075F020800E75F010800575F0087D007E3A
:10034E00007F003392D530D5031203FDEC334010FD
:10035E00EF33FFEE33FEED33FDEC33FCD5F0ED2243
:0E036E00E5F0247EA2D513CC92E7CDCEFF227F
:10037C00EDD2E7CD33EC3392D524814006E4FFFE79
:10038C00FDFC22FCE4CFCECDCC24E0501174FF80D8
:10039C00EDC3CC13CCCD13CDCE13CECF13CF047075
:0703AC00F030D5DE0203FD75
:1003B300E9D2E7C933E833F892D5EDD2E7CD33EC90
:0703C30033FC5002B2D52209
:1003CA00EC30E7100FBF000C0EBE00080DBD000494
:1003DA000BEB6014A2D5EB13FCED92E7FD2274FF40
:1003EA00FCFDFEFF22E480F8A2D574FF13FC7D8099
:0303FA00E480EFAD
:030000000206C332
:0C06C300787FE4F6D8FD75814802070A34
:0E03FD00C3E49FFFE49EFEE49DFDE49CFC2211
:10040B00D083D082F8E4937012740193700DA3A380
:10041B0093F8740193F5828883E473740293686094
:06042B00EFA3A3A380DF94
:1006CF0002000EE493A3F8E493A34003F68001F233
:1006DF0008DFF48029E493A3F85407240CC8C3332C
:1006EF00C4540F4420C8834004F456800146F6DFFB
:1006FF00E4800B0102040810204080900816E47E6D
:10070F00019360BCA3FF543F30E509541FFEE493EF
:10071F00A360010ECF54C025E060A840B8E493A3B6
:10072F00FAE493A3F8E493A3C8C582C8CAC583CAE1
:10073F00F0A3C8C582C8CAC583CADFE9DEE780BE99
:0108380000BF
:00000001FF
